:020000040800F2
:10000000A8050020D5000008B92100085D160008E9
:1000100000000000000000000000000000000000E0
:10002000000000000000000000000000C3220008E3
:100030000000000000000000C1220008C5220008E6
:10004000000000000000000000000000E7000008C1
:10005000E7000008E700000861020008E700000868
:100060000000000000000000000000000000000090
:10007000E7000008E7000008E700000800000000B3
:1000800000000000E700000800000000E700000892
:1000900000000000000000000000000061160008E1
:1000A00000000000E700000800000000E700000872
:1000B0000000000000000000000000000000000040
:1000C0000348854600F04EF800480047DB2300084F
:1000D000A80500200448804704480047FEE7FEE7E3
:1000E000FEE7FEE7FEE7FEE7DD220008C1000008AC
:1000F00030B50B46014600202022012409E00D46C0
:10010000D5409D4205D31D469540491B2546954047
:1001100040191546521E002DF1DC30BD03460B433D
:100120009B0703D009E008C9121F08C0042AFAD2AD
:1001300003E00B780370401C491C521EF9D2704733
:10014000D2B201E00270401C491EFBD2704700226F
:10015000F6E710B513460A4604461946FFF7F0FFC6
:10016000204610BD064C0125064E05E0E36807CC8D
:100170002B430C3C98471034B442F7D3FFF7A4FF4D
:1001800088240008A824000830B58C180278401C88
:1001900013071B0F01D10378401C120906D1027806
:1001A000401C03E005780D70401C491C5B1EF9D112
:1001B00001E00B70491C521EFBD1A142E6D3002086
:1001C00030BD10B500F02AFE00F008F801F0B4FFD1
:1001D00001F074FF10BD00BFFEE7000000B58DB058
:1001E000242104A8FFF7B3FF0020009001900290A3
:1001F00003900F200490FF20013008900020099008
:100200000F48008880B20A90002005900B9006905D
:1002100004A800F0EBFF002801D0FFF7DCFF072067
:10022000009000200190029003900021684600F0A9
:100230009FFE002801D0FFF7CEFF0DB000BD0000EB
:100240000001FF1F08B505494143009100BF00BFF1
:1002500000994A1E00920029F9D108BDB80B000090
:1002600010B5082000F008F801200149087010BD01
:10027000580100207047000010B504460548C068CA
:100280002040002804D00348C4602046FFF7F2FF56
:1002900010BD00000018024070B503460022CBE0FC
:1002A000012696400C683440002C71D04D68022D18
:1002B00002D04D68122D15D1D508AE001D4620354F
:1002C000A8595507EE0E0F25B5400646AE433046F9
:1002D0005607F60E0D69B5402843D508AD001E46F9
:1002E00020367051186856000325B5400646AE43C7
:1002F00030460D79AD07AD0F5600B5402843186064
:100300004D68012D08D04D68022D05D04D68112D86
:1003100002D04D68122D18D1986856000325B540BB
:100320000646AE4330465600CD68B5402843986037
:100330005868012595400646AE43304610264D6864
:1003400035402D09954028435860D868560003254C
:10035000B5400646AE43304656008D68B54028434A
:10036000D860012636074D683540B54263D1354D1A
:100370009608B600A8599507EE0E0F25B54006461B
:10038000AE43304605252D07AB4202D1002506E0DD
:1003900051E02D4DAB4201D1012500E00225960729
:1003A000F60EB5402843274D9608B600A851254DB6
:1003B000203528680546A5432846012636044D68A1
:1003C0003540B54202D10546254328461D4D20350E
:1003D000286068680546A5432846012676044D68CE
:1003E0003540B54202D1054625432846154D2035F6
:1003F0006860144D603D28680546A54328460126DF
:1004000036054D683540B54202D10546254328469C
:100410000C4D603D286068680546A54328460126C6
:1004200076054D683540B54202D10546254328463C
:10043000044D603D6860521C0D68D540002D00D011
:100440002EE770BD601802400004005001480068AB
:1004500070470000040000207047000070B505469A
:100460000C4616461049286888421CD1012C0FD131
:1004700000200E4908700E480E4A12788118082391
:1004800001220D4800F06CFC02200C4908700AE0C3
:10049000002C08D1082301220649074800F00EFC71
:1004A00004200649087070BD00540040150000206B
:1004B0001600002010000020680100201400002019
:1004C00010B50446002C01D1012010BD24212920A3
:1004D00001552068006840084000216808602046F7
:1004E00000F0DCFA0020E062002129200155002004
:1004F00060622A20015500BF2820015500BF00205E
:10050000E3E70000F0B585B004462068476920683D
:10051000406800900025FF2001303840000A002884
:1005200012D0FF21013100980840000A00280BD0AA
:1005300001200543C8432168486120680068012103
:10054000C903084321680860012040023840400A7E
:1005500000280BD0FF21013100980840000A002834
:1005600004D0022005432C48216848610120800204
:100570003840800A002832D0FF210131009808401D
:10058000000A00282BD02A20005D0390E08B029007
:100590002920065D606A0190039820280FD10298F7
:1005A00000280CD1212E06D0292E04D0282E06D1C9
:1005B0000198212803D1204601F08CFC0FE0174858
:1005C00021684861042005432A20005D102806D1D7
:1005D0002068006801214902084321680860012061
:1005E000C0023840C00A00280BD0FF21013100981A
:1005F0000840000A002804D0082005430848216864
:100600004861002D05D0E06A2843E062204601F0F1
:1006100041F805B0F0BD0000FFFDFFFFFFFBFFFF4D
:10062000FFF7FFFFFEB506460020029030684568E0
:10063000376A2A20805D01902920805D0090019812
:10064000102802D00198402871D13068806902904A
:1006500030684469E007C00F012148404840002845
:100660000CD155204004874202D00002874201D1BC
:10067000012000E00020012800D1FEBDE007C00FEE
:1006800001214840484000280BD048022840400A39
:10069000002806D0304600F0EDFF304601F05AFB4E
:1006A000D2E008202040C008002809D001204002E4
:1006B0002840400A002803D0304601F05BFAC3E02E
:1006C000022020404008002809D001204002284094
:1006D000400A002803D0304601F052FAB4E0042169
:1006E000029808408008002822D080202040C009BD
:1006F00000280DD008022840800A002808D00420D5
:1007000020408008002803D1304601F083F99BE0A7
:100710000420204080080028C2D001204002284048
:10072000400A002802D0304601F01EF98CE022E099
:1007300040202040800900280ED00120800228405F
:10074000800A002808D0042020408008002803D117
:10075000304601F0B2F877E00420204080080028FD
:1007600072D0012040022840400A00286CD0304658
:1007700001F008F868E03068446902202040400831
:1007800000280DD0012040022840400A002807D050
:100790003068806902903046029901F068FB53E0AE
:1007A000102020400009002803D0304601F0E6FB6D
:1007B0004AE00098212802D00098292822D18020E0
:1007C0002040C00900280ED0012080022840800A65
:1007D000002808D0042020408008002803D130469B
:1007E00001F01FFB30E004202040800800282BD0BF
:1007F000012040022840400A002825D0304601F060
:1008000002FB21E040202040800900280ED001207A
:1008100080022840800A002808D004202040800858
:10082000002803D1304601F0C8FA0DE00420204032
:100830008008002808D0012040022840400A0028F3
:1008400002D0304601F0ABFA00BF16E7014629207E
:10085000405C20281ED128222920425408680068C4
:10086000C007C00F002805D10868006801221043A6
:100870000A681060086800680122920210430A6842
:100880001060086840680322120210430A68506032
:10089000002070470220FCE7074A016891420AD114
:1008A00006490978002903D00021044A117002E0AA
:1008B0000121034A11707047005400405901002083
:1008C0005801002070B50446002C01D1012070BDF4
:1008D0002920005D002805D100212820015520464F
:1008E00000F0DDF824212920015520680068400827
:1008F00040002168086000F01FFC05465949606807
:10090000884206D85848854201D2012007E00020DD
:1009100005E05648854201D2012000E00020012870
:1009200000D1D4E752492846FFF7E2FB064620688B
:100930004068810989013143206841604949606804
:10094000884201D8701C08E0FF212D317143084610
:100950007D21C900FFF7CCFB401C2168096A890989
:1009600089010843216808623E496068884214D8BA
:1009700062685100681EFFF7BBFB401C0005000DBC
:10098000042801D2042041E062685100681EFFF78C
:10099000AFFB401C0005000D38E0A068002807D11F
:1009A00062685300D118681EFFF7A2FB401C0AE0E2
:1009B000192362685A431146681EFFF799FB401CD1
:1009C0000121890340180005000D002801D10120F4
:1009D0001CE0A068002809D162685300D118681E85
:1009E000FFF786FB401C0005000D0CE01923626830
:1009F0005A431146681EFFF77BFB401C0005000DA3
:100A00000121890340180121C90308432168C969EC
:100A1000184A114008432168C86161692069084388
:100A200021680968C0229143084321680860206852
:100A30008068FE218843E168084321688860206857
:100A4000006801210843216808600020E06220213D
:100A5000292001550020606200212A200155002034
:100A600035E70000A086010080841E0000093D00DB
:100A700040420F000030FFFF10B5044603492068D4
:100A8000884202D10248FFF7E1FE10BD0054004049
:100A90006801002070477047704770477047704783
:100AA00010B5044643492068884223D14248007863
:100AB000424909784018202809DB20680068012194
:100AC000890288432168086001203D4908703D483B
:100AD000007804280FD101203A49087000203749D6
:100AE00008703948344A127881180823012237489F
:100AF00000F0E4F85CE030480078C0003449401869
:100B0000407801280AD02C4800782C4909784018F0
:100B1000C0002F494018407801280AD12068006899
:100B20000121890288432168086001202449087056
:100B30003EE02448007801283AD11F480078C000E0
:100B400023494018407802281CD01B480078C00078
:100B500040184078002815D01748007817490978C0
:100B60004018C0001A494018407802280AD012489C
:100B70000078124909784018C0001549401840789B
:100B8000002815D10D480078401C0C4908700A480F
:100B900000780A4612788018C0000D4A8018082391
:100BA00001224168094800F089F8002004490870D2
:100BB00010BD000000540040100000201200002072
:100BC00058010020140000201600002068010020B9
:100BD0004800002010B504462F492068884259D1AA
:100BE0002E480078C0002E4940184078022807D0CF
:100BF0002C480078801EC00040184078022809D197
:100C0000206800680121890288432168086001206A
:100C10002549087021480078C000214940184078D3
:100C200001281CD01D480078C000401840780028DA
:100C300015D01A4800781D4909784018C000184995
:100C40004018407801280AD01448007817490978DC
:100C50004018C00012494018407800281AD11448A2
:100C60000078022816D111480078401C0F490870FE
:100C70000A480078097840180A490870074800783F
:100C80000A4A127880180B4A8118082301220A4860
:100C900000F066F810BD0000005400401000002075
:100CA00048000020480100205801002015000020C5
:100CB00014000020160000206801002038B504460A
:100CC0002920005D28252840282847D1002901D067
:100CD000002A01D1012038BD00BF2820005D012875
:100CE00001D10220F7E701252820055500BF206823
:100CF00000682840002804D120680068284325683F
:100D00002860206800680125ED02A8432568286056
:100D10002A252920055520252A2005550020E06296
:100D2000A161E283E08BA083236200BF00200090DA
:100D300020684069009020688069009000BF00BF73
:100D400000BF00252820055500BF20684068072502
:100D50002D022843256868600020BCE70220BAE71E
:100D600038B504462920005D28252840282846D18A
:100D7000002901D0002A01D1012038BD00BF282060
:100D8000005D012801D10220F7E701252820055543
:100D900000BF206800682840002804D1206800684F
:100DA000284325682860206800680125ED02A843D3
:100DB0002568286029252D5520252A200555002045
:100DC000E062A161E283E08BA083236200BF002088
:100DD000009020684069009020688069009000BF02
:100DE00000BF00BF00252820055500BF20684068CF
:100DF00007252D022843256868600020BDE70220F2
:100E0000BBE700000348006803490968401801492E
:100E100008607047040000200C00002010B500247A
:100E2000032000F009F8002801D0012401E000F0BF
:100E300033F8204610BD0000F8B5044600251348DD
:100E4000006800281ED0114801687D20C000FFF70F
:100E50004FF9074639460E480068FFF749F906463C
:100E600000F0E0FB00280BD1042C07D20022214621
:100E7000401E00F073F80748046004E0012502E01A
:100E8000012500E001252846F8BD00000C000020E7
:100E9000000000200800002008B500BF2E480068B0
:100EA000012108432C49086008460068C007C00FAC
:100EB000009000BF00BF00BF27484038C06B8905C5
:100EC000084325494039C8630846C06B09040840F7
:100ED000009000BF00BF00BF1F484038C06BC91161
:100EE00008431D494039C8630846C06B01214905C4
:100EF0000840009000BF00BF00BF17484038406B5B
:100F0000012108431449403948630846406BC00733
:100F1000C00F009000BF00BF00BF0846406B022119
:100F200008430D49403948630846406B0221084098
:100F3000009000BF00BF00BF07484038C06B890762
:100F4000084305494039C8630846C06BC00FC00755
:100F5000009000BF00BF08BD4010024070B50446BD
:100F60000D4616462946204601F032F970BD0000B4
:100F700070B504460D46002C01D1012070BD6548B6
:100F80000068C007C00FA84218D262480068400835
:100F9000400028435F490860FFF758FA064607E01B
:100FA000FFF754FA801B5C49884201D90320E5E72A
:100FB00058480068C007C00FA842F1D1022120683C
:100FC0000840022815D1042120680840042807D1D0
:100FD0005248806807210903884340184F498860B8
:100FE0004E4880680F2109028843A16808434B4995
:100FF00088602078C007C00F002848D060680128AA
:1010000008D146480068012189040840002822D1FF
:101010000120B3E76068002808D14048006801213A
:1010200089020840002816D10120A7E7606804283B
:1010300008D13A484030C0690221084000280AD14E
:1010400001209BE735484030006A02210840002813
:1010500001D1012092E731488068C008C000616872
:1010600008432E498860FFF7F1F9064607E0FFF7CD
:10107000EDF9801B2849884201D903207EE72748E3
:101080008068382108406168C9008842EFD1214852
:101090000068C007C00FA84218D91E480068400861
:1010A000400028431B490860FFF7D0F9064607E0D7
:1010B000FFF7CCF9801B1849884201D903205DE76E
:1010C00014480068C007C00FA842F1D1042120686D
:1010D0000840042808D11148806807210903884383
:1010E000E16808430D49886000F03AF80B498968C7
:1010F0000F2212021140090A8900094A515CC906EF
:10110000C90EC8400749086007480068FFF794FE09
:1011100034E7000000200240881300000010024065
:10112000E8230008000000200800002001480068B3
:10113000704700000000002000B5FFF7F7FF0649E8
:101140008968072212031140090B8900034A515C88
:10115000C906C90EC84000BD00100240282400087E
:1011600070B588B020221E496846FEF7D7FF1D489B
:10117000806838210840002814D11A480068090204
:101180000840C10A01258D401648406807214903DF
:101190000840460BB1006A4650582946FEF7A8FFA2
:1011A000044619E00F48806838210840082801D11A
:1011B0000D4C11E00B48806838210840202801D1EF
:1011C000840209E00748806838210840182802D1C5
:1011D0000124E40300E00024204608B070BD0000B4
:1011E000682400080010024000366E0170B5044605
:1011F000002C01D1012070BD2078C007C00F00284D
:101200001ED0FA48866838210E40082E04D1606846
:10121000002815D10120EEE700BF01218904606894
:10122000884205D1F14800680843F049086006E0AB
:10123000EE480068012189048843EC49086000BF3A
:10124000022120680840022875D1E84880683821CA
:1012500008400646002E58D1E44800680121890262
:101260000840002804D02069002801D10120C2E7ED
:10127000DF48006840084000401CDD490860DB484A
:1012800000680721C902884361690843D74908609B
:1012900008464068000C0004A1690843D34948602F
:1012A000FFF7D4F8054606E0FFF7D0F8401B022808
:1012B00001D903209FE7CD48006801218902084039
:1012C0000028F1D0FFF74CFFC84989680F221202AD
:1012D0001140090A8900C74A515CC906C90EC840B5
:1012E000C549086008460068C449884205D8C04816
:1012F000006840084000BE490860C1480068FFF728
:101300009BFD002848D0012075E7206900282AD0DD
:10131000B64800680721C902884361690843B34998
:1013200008600846006889150843B0490860FFF75F
:101330008DF8054607E02FE0FFF788F8401B0228EC
:1013400001D9032057E7A948006801218902084014
:101350000028F1D0A5484068000C0004A1690843AA
:10136000A249486018E0A1480068FF210131884384
:101370009E490860FFF76AF8054606E0FFF766F841
:10138000401B022801D9032035E798480068012155
:10139000890208400028F1D1082120680840082867
:1013A0006ED19248806838210840182840D18F4873
:1013B0004030006A02210840002804D0E06900287B
:1013C00001D1012017E7894840688E4908408E49BD
:1013D0008988C905C909084384494860FFF736F878
:1013E000054606E0FFF732F8401B022801D903202A
:1013F00001E77E484030006A022108400028F1D011
:10140000FFF7AEFE794989680F2212021140090ADE
:101410008900784A515CC906C90EC84076490860FF
:1014200077480068FFF708FD002844D00120E2E675
:10143000E069002825D06D484030006A012108434A
:101440006A4940310862FFF701F8054606E0FEF7F9
:10145000FDFF401B022801D90320CCE66348403041
:10146000006A022108400028F1D0604840686549C0
:10147000084065498988C905C90908435B4948602E
:1014800019E05A484030006A40084000574940314E
:101490000862FEF7DBFF054606E0FEF7D7FF401BBC
:1014A000022801D90320A6E650484030006A0221F4
:1014B00008400028F1D1042120680840042878D190
:1014C0004A4880683821084020280BD147484030DE
:1014D000C0690221084000286BD0A068002868D1AC
:1014E000012088E6A06800282CD000BF3F4840308B
:1014F000C069400840003D494031C8610846C069A4
:101500000421884339494031C86100BFFEF79EFF7E
:10151000054607E0FEF79AFF401B3C49884201D987
:10152000032068E631484030C069022108400128A4
:10153000F0D02E480069032109048843E16808437C
:101540002A49086100BFA068012808D12748403017
:10155000C0690121084325494031C86121E0A068E4
:1015600005280FD121484030C069042108431F4994
:101570004031C8610846C069012108431B49403118
:10158000C8610EE019484030C06940084000174962
:101590004031C8610846C06904218843134940317D
:1015A000C86100BFA068002814D0FEF74FFF0546B1
:1015B00008E033E0FEF74AFF401B1449884201D996
:1015C000032018E609484030C0690221084000287D
:1015D000F0D023E0FEF73AFF054619E0FEF736FFAC
:1015E000401B0A49884213D9032004E60010024038
:1015F00000200240E82300080000002000366E01B1
:1016000008000020FFFF00FE4001FF1F88130000BC
:101610000348C069022108400028DFD10020EAE524
:101620004010024070B504462546681E09498842AC
:1016300001D901200CE0681E074948610321081FF9
:1016400000F0C6FD002004498861072008610020E1
:1016500070BD0000FFFFFF0000E000E000BFFEE7FC
:1016600010B50348FEF7DEFF0148FEF74BFF10BD43
:1016700068010020016A55225204914202D10121E1
:10168000016206E0016A55225206914201D1082109
:101690000162704770B504462920055D2A20005D6F
:1016A000102808D1222D06D1206800680121C90226
:1016B00088432168086028202840282805D1002078
:1016C000606228212920015509E0602D02D02021E7
:1016D000292001550020606200212A20015529207F
:1016E000005D60281CD12021292001550020E062E6
:1016F00020684069402108408009002806D0206801
:101700000069A1690870A069401CA0612068006898
:1017100040084000216808602046FEF79DFE10E06A
:1017200020684069402108408009002806D02068D0
:101730000069A1690870A069401CA0612046FFF7FC
:10174000ABF82920055DE06A04210840042815D182
:10175000282D13D120684068072109028843216899
:10176000486007482062002060622021292001553E
:1017700000212A2001552046FFF77EF970BD0000A8
:101780000000FFFF70B50446256AE08B042811D1E4
:1017900020684068012189028843216848602068E8
:1017A0000069A1690870A069401CA061E08B401E1F
:1017B000E08381E0E08B03281CD120684068012190
:1017C0008902884321684860042D08D0022D06D084
:1017D0002068006801218902884321680860206828
:1017E0000069A1690870A069401CA061E08B401EDF
:1017F000E08361E0E08B022854D1012D01D0102D4F
:1018000007D12068006801218902884321680860A7
:1018100014E0042D01D0022D07D1206800680121B9
:10182000890208432168086008E0102D06D020686E
:1018300000680121490208432168086020680069A6
:10184000A1690870A069401CA061E08B401EE08384
:1018500020680069A1690870A069401CA061E08B44
:10186000401EE08320684068032109028843216804
:1018700048602021292001552A20005D402808D1F8
:1018800000212A200155002060622046FFF704F95C
:1018900012E000212A200155122060622046FFF745
:1018A000F9F809E020680069A1690870A069401C86
:1018B000A061E08B401EE08370BD70B50446292016
:1018C000005D22284FD1E58B032D14D920680069D3
:1018D000A1690870A069401CA061E08B401EE083F4
:1018E000E08B03283ED120684068012189028843AB
:1018F0002168486036E0206A022833D0012D01D0EB
:10190000002D2FD1206800680121890288432168B9
:101910000860206840680721090288432168486000
:1019200020680069A1690870A069401CA061E08B73
:10193000401EE0832021292001552A20005D4028F7
:1019400008D100212A200155002060622046FFF7BF
:10195000A3F807E000212A200155122060622046EA
:10196000FFF798F800BF70BD70B50446256A2920BE
:10197000005D21284BD1E08B00280AD0A0690078B7
:1019800021680861A069401CA061E08B401EE083D3
:101990003DE0082D17D0202D15D01D48854212D0CE
:1019A00020684068072109028843216848601120A7
:1019B000606200212A20015520212920015520465E
:1019C000FFF769F823E0206840680721090288438F
:1019D00021684860206800680121490208432168A5
:1019E0000860002060622021292001552A20005D26
:1019F000402806D100212A2001552046FFF74DF846
:101A000005E000212A2001552046FFF744F870BD6B
:101A10000000FFFFF8B504462920055D2A20075D78
:101A2000266AA08B002840D1212D3ED1082E17D048
:101A3000202E15D04E48864212D0206840680721DB
:101A400009028843216848601120606200212A2031
:101A500001552021292001552046FFF71CF885E07B
:101A6000206840680721090288432168486020688F
:101A70000068012149020843216808600020606273
:101A80002021292001552A20005D402806D100216F
:101A90002A2001552046FFF700F867E000212A20A0
:101AA00001552046FEF7F7FF60E0212D03D0402FBF
:101AB0005CD1222D5AD1E08B002807D120684068E4
:101AC000012189028843216848604FE02A20005D97
:101AD000402841D1E06B002815D1A06B012807D127
:101AE000606BC0B221680861E06B801CE0633DE080
:101AF000606BFF2109020840001221680861E06B59
:101B0000401CE06332E0E06B012807D1606BC0B29B
:101B100021680861E06B401CE06327E0E06B02286D
:101B200024D12920005D222807D120680068FF21E8
:101B3000013108432168086018E02920005D212850
:101B400014D1A069007821680861A069401CA061D7
:101B5000E08B401EE08309E0A069007821680861FD
:101B6000A069401CA061E08B401EE083F8BD00002E
:101B70000000FFFF016BC9B20268116170470000ED
:101B800038B52A24225C016A436A2924245C222C69
:101B90007ED1C46B002C0BD1402A09D100BF009428
:101BA0000468646900940468A469009400BFCDE0EF
:101BB000C48B002C11D100BF0094046864690094A8
:101BC0000468A469009400BF00BF0468246801256C
:101BD0006D022C4305682C60AAE0C48B012C60D1F7
:101BE0005B4CA14219D1046824680125AD02AC43C5
:101BF00005682C6000BF00240094046864690094A8
:101C00000468A469009400BF00BF0468246801252B
:101C10006D022C4305682C608AE0082925D0202914
:101C200023D0122B01D101291FD104290BD0022965
:101C300009D0102907D0046824680125AD02AC43FF
:101C400005682C6006E0046824680125AD022C4379
:101C500005682C6000BF0024009404686469009447
:101C60000468A469009400BF62E004682468012548
:101C7000AD02AC4305682C6000BF002400940468EA
:101C8000646900940468A469009400BF00BF00E088
:101C900051E00468246801256D022C4305682C601E
:101CA00046E0C48B022C31D104291DD002291BD05F
:101CB000102919D0046824680125ED022C43056819
:101CC0002C6000BF002400940468646900940468D8
:101CD000A469009400BF00BF046824680125AD0218
:101CE000AC4305682C6023E0046824680125AD023C
:101CF0002C4305682C6000BF0024009404686469CC
:101D000000940468A469009400BF11E0046824688A
:101D10000125AD022C4305682C6000BF002400940F
:101D20000468646900940468A469009400BF00BF5B
:101D30000024C4630AE000BF0024009404686469BE
:101D400000940468A469009400BF00BF38BD00007F
:101D50000000FFFF2A21095C40290FD1C16B002937
:101D600005D1016BFE2211400268116116E0016B82
:101D700001221143C9B2026811610FE02921095CF7
:101D8000212905D1016BFE2211400268116105E095
:101D9000016B01221143C9B2026811617047C18B06
:101DA000002909D001680969826911708169491C9B
:101DB0008161C18B491EC183704770B504462920DB
:101DC000055DE08B00281DD020680069A1690870BE
:101DD000A069401CA061E08B401EE083E08B0028DE
:101DE00010D12A2D0ED12068406801218902884334
:101DF0002168486022206062282129200155204660
:101E0000FEF74EFE70BDC18B002909D081690978AB
:101E1000026811618169491C8161C18B491EC183BE
:101E2000704770B504462920055DE08B00281DD061
:101E3000A069007821680861A069401CA061E08B5E
:101E4000401EE083E08B002810D1292D0ED12068A0
:101E5000406801218902884321684860212060622E
:101E60002821292001552046FEF7B4FE70BDF8B5A3
:101E700004460D46002600272920005D2821084041
:101E800028281DD1206840680121890288432168E3
:101E90004860042028408008002800D105E0042084
:101EA00028408008002800D0012600BF00212820FB
:101EB000015500BF3A4631462046FEF7CFFA08E00A
:101EC0000220C0432168486100BF0021282001553D
:101ED00000BFF8BD70B504462920055D266A082EAE
:101EE00001D0202E20D1282D1ED12248206220682A
:101EF0004068072109028843216848601E4821681C
:101F000048612068006801218902884321680860CF
:101F10000020606220212920015500212A2001553E
:101F20002046FEF7A9FD23E0212D1ED11148206295
:101F30002120606220212920015500212A200155FD
:101F400020684068072109028843216848600A48E0
:101F5000216848612068006801218902884321685E
:101F600008602046FEF736FE02E00348216848611B
:101F700070BD00000000FFFFFFFBFFFFFEB5044641
:101F80002920065D2A20075DE08B02902920055D4F
:101F9000606A0190202F13D10298002810D1212DC2
:101FA00006D0292D04D0282D0AD10198212807D147
:101FB000206840680321490288432168486006E0A0
:101FC000206840680721090288432168486000BFF3
:101FD000002000902068406900902068006801217E
:101FE00008432168086000BF00BF20680068012125
:101FF0008902884321680860E08B002828D0206887
:102000004069042108408008002809D02068006940
:10201000A1690870A069401CA061E08B401EE083AC
:1020200020684069402108408009002809D02068C4
:102030000069A1690870A069401CA061E08B401E86
:10204000E083E08B002803D0E06A04210843E062CB
:10205000E06A002803D02046FFF71CFB2BE02A2E65
:1020600007D1002060622821292001552046FEF773
:1020700017FD2920005D28280DD10F48206200207F
:10208000606220212920015500212A200155204687
:10209000FEF7F2FC0FE0606A222801D0222E0AD15E
:1020A0000020606220212920015500212A200155AD
:1020B0002046FEF7F5FCFEBD0000FFFF10B50E4800
:1020C0000E4908600E484860012189030B48816071
:1020D000AA21C160002101614161FEF7F3FB0748BD
:1020E000FEF7B4FB05480068406807210902084371
:1020F00002490968486010BD005400406801002092
:10210000A086010010B50A48006800680121C903D3
:1021100008430749096808600548FEF7D1F90548F2
:10212000C06B0121490588430249C86310BD000006
:10213000680100200010024000B587B0142102A8F9
:10214000FEF705F800BF1A48C06B01214905084396
:102150001749C8630846C06B012149050840019032
:1021600000BF00BF082002901220039000200490BE
:10217000022005900620069002A90E48FEF78CF872
:10218000102002901220039000200490022005905D
:102190000620069002A90748FEF77EF800211720C6
:1021A00000F052F8172000F009F807B000BD000059
:1021B000001002400004005070470000C206D20E1A
:1021C00001219140014A11607047000000E100E0E8
:1021D00010B5002819DA1A4A03071B0F083B9B08A1
:1021E0009B00D2588307DC0EFF23A3409A438B0742
:1021F0001B0E8407E40EA3401A43114B0407240F5F
:10220000083CA408A4001A5118E00E4A03231B023C
:10221000D21883089B00D2588307DC0EFF23A3400B
:102220009A438B071B0E8407E40EA3401A43054B09
:10223000032424021B198408A4001A5110BD0000B5
:102240001CED00E000E100E010B5002819DA1A4AA0
:1022500003071B0F083B9B089B00D2588307DC0E2B
:10226000FF23A3409A438B071B0E8407E40EA34071
:102270001A43114B0407240F083CA408A4001A5168
:1022800018E00E4A03231B02D21883089B00D25881
:102290008307DC0EFF23A3409A438B071B0E8407A2
:1022A000E40EA3401A43054B032424021B1984089F
:1022B000A4001A5110BD00001CED00E000E100E098
:1022C0007047704710B5FEF79DFD03480068401C3D
:1022D0000149086010BD00006001002010B50E48E3
:1022E0004068000C00040D49098889B208430A4976
:1022F0004860084640680A490840084940318988D2
:10230000C905C909084304494860C80305498860EC
:10231000C820FDF797FF10BD001002400001FF1F0D
:10232000FFFF00FE00ED00E000F032F8002012494F
:1023300008701FE01148007801280BD100201049D7
:102340004860FFF7DFFEFFF7F7FEFFF7B7FE00205C
:102350000A4908700B48007800280BD10A484068E9
:102360000078222803D101200849886102E0012079
:1023700006498862DEE700005B010020580100206A
:102380000018024014000020C80000200004005083
:1023900000B585B014216846FDF7D9FE01200090F4
:1023A0000190002002900220039069460248FDF748
:1023B00073FF05B000BD00000004005002E008C833
:1023C000121F08C1002AFAD170477047002001E0AF
:1023D00001C1121F002AFBD1704710B5FDF7F1FEB5
:1023E000FFF7A2FF002010BD000000000000000069
:1023F00000000000000000000000000000000000DD
:1024000000000000000000000100000002000000C9
:1024100003000000040000000600000007000000A8
:10242000080000000900000000000000000000009B
:102430000000000000000000010000000200000099
:10244000030000000400000000093D0000127A00B3
:10245000000000000000000000366E01006CDC028D
:10246000000000000000000000093D0000127A009A
:10247000000000000000000000366E01006CDC026D
:102480000000000000000000A82400080000002058
:1024900068010000880100089C25000868010020F0
:1024A00040040000CC2300085500366E014204B2FF
:1024B0000140300102030405060708090A0B0C0D50
:1024C0000E0F101112131415161718191A1B1C1DB4
:1024D0001E1F202122232425262728292A2B2C2DA4
:1024E0002E2F32013216342001013217342002011E
:1024F000321834200301321934200401321A3420F6
:102500000501321B34200601321C34200701321D24
:1025100034200801321E34200901321F34200A0100
:10252000322034200B01322134200C01322234209D
:102530000D01322334200E01322434200F013225C4
:1025400043201032264320113227432012322843E1
:1025500020133229432014322A432015322B4320E2
:1025600016322C432017322D34201802322E3420FC
:102570001902322F34201A02323034201B02323139
:1025800034201C02323234201D02323334201E0229
:0C259000323434201F02323502212000BA
:04000005080000C12E
:00000001FF
