:020000040800F2
:1000000070070020D5000008552500080D190008CC
:1000100000000000000000000000000000000000E0
:10002000000000000000000000000000A9270008F8
:100030000000000000000000E9260008AB270008CF
:10004000000000000000000000000000E7000008C1
:10005000E7000008E70000088D020008E70000083C
:100060000000000000000000000000000000000090
:10007000E70000081D280008E70000080000000055
:1000800000000000A524000800000000012800086E
:10009000000000000000000000000000111900082E
:1000A00000000000E700000800000000E700000872
:1000B0000000000000000000000000000000000040
:1000C0000348854600F04EF800480047FB29000829
:1000D000700700200448804704480047FEE7FEE719
:1000E000FEE7FEE7FEE7FEE7B5270008C1000008CF
:1000F00030B50B46014600202022012409E00D46C0
:10010000D5409D4205D31D469540491B2546954047
:1001100040191546521E002DF1DC30BD03460B433D
:100120009B0703D009E008C9121F08C0042AFAD2AD
:1001300003E00B780370401C491C521EF9D2704733
:10014000D2B201E00270401C491EFBD2704700226F
:10015000F6E710B513460A4604461946FFF7F0FFC6
:10016000204610BD064C0125064E05E0E36807CC8D
:100170002B430C3C98471034B442F7D3FFF7A4FF4D
:10018000002B0008202B000870B58C180578401C47
:100190006B075B0F01D10378401C2A1106D102784E
:1001A000401C03E006780E70401C491C5B1EF9D110
:1001B0002B0705D40023521E0DD40B70491CFAE7FF
:1001C0000378401CCB1A921C03E01D780D70491C6B
:1001D0005B1C521EF9D5A142D8D3002070BD10B5CA
:1001E00000F048FD00F010F802F004F902F0B8F851
:1001F00002F098FB02F074FB02F080F902F0DCFBE5
:1002000010BD00BFFEE7000000B58DB0242104A89A
:10021000FFF79DFF002000900190029003900F20B7
:100220000490FF2001300890002009900F480088BA
:1002300080B20A90002005900B90069004A801F06F
:1002400001F8002801D0FFF7DCFF07200090002014
:100250000190029003900021684600F0B5FE00284E
:1002600001D0FFF7CEFF0DB000BD00000001FF1F61
:1002700008B505494143009100BF00BF00994A1EDF
:1002800000920029F9D108BDB80B000010B5082074
:1002900000F002F810BD704710B504460548C0686C
:1002A0002040002804D00348C4602046FFF7F3FF35
:1002B00010BD00000018024070B503460022CBE0DC
:1002C000012696400C683440002C71D04D68022DF8
:1002D00002D04D68122D15D1D508AE001D4620352F
:1002E000A8595507EE0E0F25B5400646AE433046D9
:1002F0005607F60E0D69B5402843D508AD001E46D9
:1003000020367051186856000325B5400646AE43A6
:1003100030460D79AD07AD0F5600B5402843186043
:100320004D68012D08D04D68022D05D04D68112D66
:1003300002D04D68122D18D1986856000325B5409B
:100340000646AE4330465600CD68B5402843986017
:100350005868012595400646AE43304610264D6844
:1003600035402D09954028435860D868560003252C
:10037000B5400646AE43304656008D68B54028432A
:10038000D860012636074D683540B54263D1354DFA
:100390009608B600A8599507EE0E0F25B5400646FB
:1003A000AE43304605252D07AB4202D1002506E0BD
:1003B00051E02D4DAB4201D1012500E00225960709
:1003C000F60EB5402843274D9608B600A851254D96
:1003D000203528680546A5432846012636044D6881
:1003E0003540B54202D10546254328461D4D2035EE
:1003F000286068680546A5432846012676044D68AE
:100400003540B54202D1054625432846154D2035D5
:100410006860144D603D28680546A54328460126BE
:1004200036054D683540B54202D10546254328467C
:100430000C4D603D286068680546A54328460126A6
:1004400076054D683540B54202D10546254328461C
:10045000044D603D6860521C0D68D540002D00D0F1
:100460002EE770BD6018024000040050014800688B
:1004700070470000C80200207047000070B50446B5
:100480000D46164606492068884207D1012D05D140
:10049000082301220349044800F011FB70BD00004D
:1004A0000054004004000020D402002010B504468F
:1004B000002C01D1012010BD2421292001552068E4
:1004C00000684008400021680860204600F0E8FA13
:1004D0000020E062002129200155002060622A20CE
:1004E000015500BF2820015500BF0020E3E70000B0
:1004F000F0B585B0044620684769206840680090E0
:100500000025FF2001303840000A002812D0FF21CA
:10051000013100980840000A00280BD00120054353
:10052000C84321684861206800680121C903084365
:1005300021680860012040023840400A00280BD0A2
:10054000FF21013100980840000A002804D0022051
:1005500005432C4821684861012080023840800A08
:10056000002832D0FF21013100980840000A0028FD
:100570002BD02A20005D0390E08B02902920065D9D
:10058000606A0190039820280FD1029800280CD1AE
:10059000212E06D0292E04D0282E06D101982128FC
:1005A00003D1204601F0E8FD0FE0174821684861BB
:1005B000042005432A20005D102806D12068006829
:1005C000012149020843216808600120C002384027
:1005D000C00A00280BD0FF21013100980840000A12
:1005E000002804D008200543084821684861002DF0
:1005F00005D0E06A2843E062204601F0A3F905B087
:10060000F0BD0000FFFDFFFFFFFBFFFFFFF7FFFF57
:10061000FEB5054600200290286846682F6A2A2009
:10062000405D01902920405D00900198102802D083
:100630000198402871D1286880690290286844692F
:10064000E007C00F01214840484000280CD1552048
:100650004004874202D00002874201D1012000E01D
:100660000020012800D1FEBDE007C00F0121484055
:10067000484000280BD048023040400A002806D0ED
:10068000284601F04FF9284601F0BCFCDEE00820C6
:100690002040C008002809D0012040023040400A14
:1006A000002803D0284601F0BDFBCFE00220204007
:1006B0004008002809D0012040023040400A0028AC
:1006C00003D0284601F0B4FBC0E0042102980840A2
:1006D0008008002822D080202040C00900280DD0AA
:1006E00008023040800A002808D0042020408008FA
:1006F000002803D1284601F0E5FAA7E004202040B5
:1007000080080028C2D0012040023040400A002862
:10071000BCD0284601F080FA98E022E0402020403A
:10072000800900280ED0012080023040800A002875
:1007300008D0042020408008002803D1284601F07A
:1007400014FA83E004202040800800287ED0012095
:1007500040023040400A002878D0284601F06AF96B
:1007600074E0E86A002802D02868446904E0286838
:1007700080690290286844690220204040080028CF
:1007800010D0012040023040400A00280AD0E86A18
:10079000002802D02868806902902846029901F05A
:1007A000BEFC53E0102020400009002803D028465A
:1007B00001F036FD4AE00098212802D0009829284F
:1007C00022D180202040C00900280ED001208002C4
:1007D0003040800A002808D00420204080080028EB
:1007E00003D1284601F075FC30E004202040800849
:1007F00000282BD0012040023040400A002825D09C
:10080000284601F058FC21E04020204080090028C3
:100810000ED0012080023040800A002808D0042039
:1008200020408008002803D1284601F01EFC0DE07E
:10083000042020408008002808D0012040023040D9
:10084000400A002802D0284601F001FC00BF0AE758
:1008500001462920405C20281ED12822292042540C
:1008600008680068C007C00F002805D10868006844
:10087000012210430A681060086800680122920291
:1008800010430A681060086840680322120210438F
:100890000A685060002070470220FCE7074A0168A0
:1008A00091420AD106490978002903D00021044A5F
:1008B000117002E00121034A11707047005400409A
:1008C000C5020020C402002070B50446002C01D1EE
:1008D000012070BD2920005D002805D100212820BD
:1008E0000155204600F0DDF824212920015520681B
:1008F0000068400840002168086000F049FC054697
:1009000059496068884206D85848854201D201207A
:1009100007E0002005E05648854201D2012000E0B2
:100920000020012800D1D4E752492846FFF7E0FB18
:10093000064620684068810989013143206841608A
:1009400049496068884201D8701C08E0FF212D31B8
:10095000714308467D21C900FFF7CAFB401C21688E
:10096000096A890989010843216808623E4960686B
:10097000884214D862685100681EFFF7B9FB401C1A
:100980000005000D042801D2042041E062685100F6
:10099000681EFFF7ADFB401C0005000D38E0A068A5
:1009A000002807D162685300D118681EFFF7A0FB2A
:1009B000401C0AE0192362685A431146681EFFF77B
:1009C00097FB401C0121890340180005000D0028F9
:1009D00001D101201CE0A068002809D16268530001
:1009E000D118681EFFF784FB401C0005000D0CE0C9
:1009F000192362685A431146681EFFF779FB401CB1
:100A00000005000D0121890340180121C903084395
:100A10002168C969184A114008432168C8616169A1
:100A20002069084321680968C0229143084321686E
:100A3000086020688068FE218843E16808432168D7
:100A40008860206800680121084321680860002050
:100A5000E0622021292001550020606200212A2027
:100A60000155002035E70000A086010080841E00AB
:100A700000093D0040420F000030FFFF10B5044662
:100A800003492068884202D10248FFF7E1FE10BD09
:100A900000540040D40200207047704770477047F0
:100AA0007047704710B5044603492068884201D159
:100AB00001F01CFE10BD000000540040704738B526
:100AC00004462920005D28252840282847D10029F0
:100AD00001D0002A01D1012038BD00BF2820005DCF
:100AE000012801D10220F7E701252820055500BF84
:100AF000206800682840002804D120680068284346
:100B000025682860206800680125ED02A843256853
:100B100028602A252920055520252A200555002052
:100B2000E062A161E283E08BA083236200BF00202A
:100B3000009020684069009020688069009000BFA4
:100B400000BF00BF00252820055500BF2068406871
:100B500007252D022843256868600020BCE7022095
:100B6000BAE738B504462920005D28252840282802
:100B700046D1002901D0002A01D1012038BD00BF93
:100B80002820005D012801D10220F7E70125282057
:100B9000055500BF206800682840002804D120685F
:100BA0000068284325682860206800680125ED0258
:100BB000A8432568286029252D5520252A2005557C
:100BC0000020E062A161E283E08BA083236200BF8A
:100BD00000200090206840690090206880690090A3
:100BE00000BF00BF00BF00252820055500BF2068BA
:100BF000406807252D022843256868600020BDE76E
:100C00000220BBE770B50446002C01D1012070BD65
:100C10000F48216808600F482168086021686068F3
:100C200048602168A0688860FFF720FC054606E060
:100C3000FFF71CFC401B302801D90320E7E72068A0
:100C4000C0680028F4D10448216808600020DEE76D
:100C5000CCCC000055550000AAAA0000034800684B
:100C6000034909684018014908607047C80200201C
:100C7000D002002010B50024032000F009F800285D
:100C800001D0012401E000F09BF8204610BD0000D7
:100C9000F8B5044600251348006800281ED0114806
:100CA00001687D20C000FFF723FA074639460E4849
:100CB0000068FFF71DFA064600F0EAFC00280BD199
:100CC000042C07D200222146401E00F0F5F8074808
:100CD000046004E0012502E0012500E0012528462A
:100CE000F8BD0000D002002000000020CC0200204F
:100CF0007047704710B5044620680068022108401C
:100D0000400800280BD02068806808404008002870
:100D100005D00220216848602046FFF7E9FF2068DF
:100D2000006810210840000900280BD02068806866
:100D300008400009002805D010202168486020469E
:100D4000FFF7D7FF10BD000070B50446002C01D19D
:100D5000012070BD607B002803D12073204600F085
:100D600013F8022060732068C56806480540A16832
:100D70006068084305432068C56001206073002057
:100D8000E7E70000FFF1BFFF704702460220507303
:100D9000106880680223184313689860106800691F
:100DA0000123184313681861106881611068006995
:100DB0000423184313681861012050730020704702
:100DC00008B500BF35480068012108433349086071
:100DD00008460068C007C00F009000BF00BF00BFFA
:100DE0002E484038C06B890508432C494039C863F8
:100DF0000846C06B09040840009000BF00BF00BF58
:100E000026484038C06BC911084324494039C8639B
:100E10000846C06B012149050840009000BF00BF93
:100E200000BF1E484038406B022108431B4940392F
:100E300048630846406B02210840009000BF00BF95
:100E400000BF16484038C06B890708431349403932
:100E5000C8630846C06BC00FC007009000BF00BF4A
:100E600000BF0E480068C91408430C4908600846D2
:100E70000068C9140840009000BF00BF00BF0748C9
:100E80000068090108430549086008460068012117
:100E9000C9030840009000BF00BF08BD40100240D9
:100EA00000BFC206D20E01219140024A116000BF6C
:100EB0007047000000E100E070B504460D4616469C
:100EC0002946204601F0D4FB70BD00000D4A12688F
:100ED00003239B039A4302430A4B1A600A4A12698E
:100EE00004231A43084B1A61012901D130BF02E0E3
:100EF00040BF20BF20BF044A126904239A43024B1B
:100F00001A6170470070004000ED00E030B5014606
:100F1000022208681040022816D100BF294B5B69E5
:100F2000840223401846830818434B689C082343D7
:100F30001A46244B5B690124A402A34304461443CC
:100F40002343204C636100BF202208681040202802
:100F500016D100BF1B4B5B69440123401846830830
:100F600018438B689C0823431A46164B5B6901247F
:100F7000E402A343044614432343124C636100BFBD
:100F80000122520208681040904218D100BF0D4C57
:100F90006469FF252D022C4020460A4C64692C40D0
:100FA000A208044614432346064C64690325AD0495
:100FB000AC43CD681D432C43024D6C6100BF002043
:100FC00030BD00004010024070B504460D46002CB4
:100FD00001D1012070BD65480068C007C00FA8425C
:100FE00018D2624800684008400028435F49086002
:100FF000FFF73CFA064607E0FFF738FA801B5C492A
:10100000884201D90320E5E758480068C007C00FAF
:10101000A842F1D1022120680840022815D10421FC
:1010200020680840042807D1524880680721090336
:10103000884340184F4988604E4880680F21090254
:101040008843A16808434B4988602078C007C00FD7
:10105000002848D06068012808D14648006801216E
:1010600089040840002822D10120B3E760680028E5
:1010700008D140480068012189020840002816D1A3
:101080000120A7E76068042808D13A484030C069C9
:101090000221084000280AD101209BE73548403052
:1010A000006A02210840002801D1012092E731485E
:1010B0008068C008C000616808432E498860FFF757
:1010C000D5F9064607E0FFF7D1F9801B2849884289
:1010D00001D903207EE727488068382108406168ED
:1010E000C9008842EFD121480068C007C00FA8425C
:1010F00018D91E4800684008400028431B49086072
:10110000FFF7B4F9064607E0FFF7B0F9801B18496E
:10111000884201D903205DE714480068C007C00F6A
:10112000A842F1D1042120680840042808D11148C0
:101130008068072109038843E16808430D498860F6
:1011400000F03AF80B4989680F2212021140090A8F
:101150008900094A515CC906C90EC84007490860A0
:1011600007480068FFF794FD34E7000000200240C4
:101170008813000000100240082A00080000002028
:10118000CC020020014800687047000000000020E9
:1011900000B5FFF7F7FF06498968072212031140DF
:1011A000090B8900034A515CC906C90EC84000BD3D
:1011B00000100240482A000870B588B020221E495D
:1011C0006846FEF7ABFF1D488068382108400028BC
:1011D00014D11A48006809020840C10A01258D404F
:1011E00016484068072149030840460BB1006A468B
:1011F00050582946FEF77CFF044619E00F488068E6
:1012000038210840082801D10D4C11E00B488068B6
:1012100038210840202801D1840209E0074880686D
:1012200038210840182802D10124E40300E00024FA
:10123000204608B070BD0000E02A000800100240FF
:1012400000366E0170B50446002C01D1012070BD3E
:101250002078C007C00F00281ED0FA4886683821C1
:101260000E40082E04D16068002815D10120EEE759
:1012700000BF012189046068884205D1F1480068F7
:101280000843F049086006E0EE480068012189043F
:101290008843EC49086000BF02212068084002280A
:1012A00075D1E8488068382108400646002E58D19C
:1012B000E4480068012189020840002804D0206920
:1012C000002801D10120C2E7DF4800684008400043
:1012D000401CDD490860DB4800680721C9028843DB
:1012E00061690843D749086008464068000C00045B
:1012F000A1690843D3494860FFF7B8F8054606E0FE
:10130000FFF7B4F8401B022801D903209FE7CD481E
:1013100000680121890208400028F1D0FFF74CFF46
:10132000C84989680F2212021140090A8900C74A78
:10133000515CC906C90EC840C54908600846006826
:10134000C449884205D8C048006840084000BE49EA
:101350000860C1480068FFF79BFC002848D00120C6
:1013600075E7206900282AD0B64800680721C9021D
:10137000884361690843B3490860084600688915D5
:101380000843B0490860FFF771F8054607E02FE011
:10139000FFF76CF8401B022801D9032057E7A94842
:1013A00000680121890208400028F1D0A548406862
:1013B000000C0004A1690843A249486018E0A14854
:1013C0000068FF21013188439E490860FFF74EF80D
:1013D000054606E0FFF74AF8401B022801D9032022
:1013E00035E7984800680121890208400028F1D1BA
:1013F00008212068084008286ED19248806838216A
:101400000840182840D18F484030006A0221084027
:10141000002804D0E069002801D1012017E789489D
:1014200040688E4908408E498988C905C909084322
:1014300084494860FFF71AF8054606E0FFF716F8FA
:10144000401B022801D9032001E77E484030006A92
:10145000022108400028F1D0FFF7AEFE79498968E3
:101460000F2212021140090A8900784A515CC9060C
:10147000C90EC8407649086077480068FFF708FC45
:10148000002844D00120E2E6E069002825D06D481C
:101490004030006A012108436A4940310862FEF782
:1014A000E5FF054606E0FEF7E1FF401B022801D9F3
:1014B0000320CCE663484030006A0221084000283F
:1014C000F1D0604840686549084065498988C90588
:1014D000C90908435B49486019E05A484030006A2E
:1014E00040084000574940310862FEF7BFFF0546FB
:1014F00006E0FEF7BBFF401B022801D90320A6E649
:1015000050484030006A022108400028F1D10421EF
:1015100020680840042878D14A488068382108406B
:1015200020280BD147484030C069022108400028DC
:101530006BD0A068002868D1012088E6A068002848
:101540002CD000BF3F484030C069400840003D49B2
:101550004031C8610846C069042188433949403197
:10156000C86100BFFEF782FF054607E0FEF77EFF79
:10157000401B3C49884201D9032068E6314840308D
:10158000C069022108400128F0D02E4800690321DB
:1015900009048843E16808432A49086100BFA0683C
:1015A000012808D127484030C06901210843254956
:1015B0004031C86121E0A06805280FD121484030A2
:1015C000C069042108431F494031C8610846C06909
:1015D000012108431B494031C8610EE019484030E1
:1015E000C0694008400017494031C8610846C069D9
:1015F0000421884313494031C86100BFA068002816
:1016000014D0FEF733FF054608E033E0FEF72EFF67
:10161000401B1449884201D9032018E6094840308C
:10162000C069022108400028F0D023E0FEF71EFF29
:10163000054619E0FEF71AFF401B0A49884213D9F4
:10164000032004E60010024000200240082A00089F
:101650000000002000366E01CC020020FFFF00FEDB
:101660004001FF1F881300000348C06902210840A1
:101670000028DFD10020EAE540100240034800695D
:1016800002210843014908617047000000E000E0C2
:1016900070B504462546681E0949884201D90120D3
:1016A0000CE0681E074948610321081F00F0E0FFB5
:1016B00000200449886107200861002070BD0000F7
:1016C000FFFFFF0000E000E00348006902218843BB
:1016D000014908617047000000E000E07047704772
:1016E00010B50446002C01D1012010BDA07F0028B8
:1016F00003D16077204600F00AF80220A077211D70
:10170000206801F099F80120A0770020EDE77047EC
:1017100001460868C068012318430B68D860086850
:1017200080684207520F062A05D008680068012326
:1017300018430B68186000207047704710B50446C6
:101740002068006902210840400800281CD0206859
:10175000C06808404008002816D0481F216808616A
:1017600001202077206880698007800F002803D03F
:101770002046FFF7E2FF05E0204600F0C3F82046D0
:1017800000F0C1F80020207720680069042108409B
:10179000800800281DD02068C06808408008002804
:1017A00017D0C8432168086102202077206880692B
:1017B000032109020840002803D02046FFF7BDFF9F
:1017C00005E0204600F09EF8204600F09CF800203E
:1017D00020772068006908210840C00800281CD034
:1017E0002068C0680840C008002816D0C843216897
:1017F0000861042020772068C0698007800F0028D6
:1018000003D02046FFF799FF05E0204600F07AF864
:10181000204600F078F80020207720680069102129
:101820000840000900281DD02068C0680840000951
:10183000002817D0C8432168086108202077206855
:10184000C069032109020840002803D02046FFF7A1
:1018500074FF05E0204600F055F8204600F053F8EC
:101860000020207720680069C007C00F0121484090
:10187000484000280CD02068C068084048404840D4
:10188000002805D0C81E21680861204600F03CF8F9
:101890002068006980210840C00900280BD020681A
:1018A000C0680840C009002805D0C8432168086105
:1018B0002046FFF713FF2068006940210840800997
:1018C00000280BD02068C06808408009002805D097
:1018D000C84321680861204600F017F820680069B5
:1018E00020210840400900280BD02068C06808402B
:1018F0004009002805D0C843216808612046FFF749
:10190000EEFE10BD704770477047704700BFFEE79E
:1019100010B50348FEF77CFE0148FEF7E9FD10BD57
:10192000D4020020016A55225204914202D10121C1
:10193000016206E0016A55225206914201D1082156
:101940000162704770B504462920055D2A20005DBC
:10195000102808D1222D06D1206800680121C90273
:1019600088432168086028202840282805D10020C5
:10197000606228212920015509E0602D02D0202134
:10198000292001550020606200212A2001552920CC
:10199000005D60281CD12021292001550020E06233
:1019A00020684069402108408009002806D020684E
:1019B0000069A1690870A069401CA06120680068E6
:1019C00040084000216808602046FEF755FD10E001
:1019D00020684069402108408009002806D020681E
:1019E0000069A1690870A069401CA0612046FEF74B
:1019F00055FF2920055DE06A04210840042815D11F
:101A0000282D13D1206840680721090288432168E6
:101A1000486007482062002060622021292001558B
:101A200000212A2001552046FFF728F870BD00004C
:101A30000000FFFF70B50446256AE08B042811D131
:101A40002068406801218902884321684860206835
:101A50000069A1690870A069401CA061E08B401E6C
:101A6000E08381E0E08B03281CD1206840680121DD
:101A70008902884321684860042D08D0022D06D0D1
:101A80002068006801218902884321680860206875
:101A90000069A1690870A069401CA061E08B401E2C
:101AA000E08361E0E08B022854D1012D01D0102D9C
:101AB00007D12068006801218902884321680860F5
:101AC00014E0042D01D0022D07D120680068012107
:101AD000890208432168086008E0102D06D02068BC
:101AE00000680121490208432168086020680069F4
:101AF000A1690870A069401CA061E08B401EE083D2
:101B000020680069A1690870A069401CA061E08B91
:101B1000401EE08320684068032109028843216851
:101B200048602021292001552A20005D402808D145
:101B300000212A200155002060622046FEF7AEFFFA
:101B400012E000212A200155122060622046FEF793
:101B5000A3FF09E020680069A1690870A069401C22
:101B6000A061E08B401EE08370BD70B50446292063
:101B7000005D22284FD1E58B032D14D92068006920
:101B8000A1690870A069401CA061E08B401EE08341
:101B9000E08B03283ED120684068012189028843F8
:101BA0002168486036E0206A022833D0012D01D038
:101BB000002D2FD120680068012189028843216807
:101BC000086020684068072109028843216848604E
:101BD00020680069A1690870A069401CA061E08BC1
:101BE000401EE0832021292001552A20005D402845
:101BF00008D100212A200155002060622046FEF70E
:101C00004DFF07E000212A20015512206062204686
:101C1000FEF742FF00BF70BD70B50446256A29205B
:101C2000005D21284BD1E08B00280AD0A069007804
:101C300021680861A069401CA061E08B401EE08320
:101C40003DE0082D17D0202D15D01D48854212D01B
:101C500020684068072109028843216848601120F4
:101C6000606200212A2001552021292001552046AB
:101C7000FEF713FF23E0206840680721090288432C
:101C800021684860206800680121490208432168F2
:101C90000860002060622021292001552A20005D73
:101CA000402806D100212A2001552046FEF7F7FEE4
:101CB00005E000212A2001552046FEF7EEFE70BD0A
:101CC0000000FFFFF8B504462920055D2A20075DC6
:101CD000266AA08B002840D1212D3ED1082E17D096
:101CE000202E15D04E48864212D020684068072129
:101CF00009028843216848601120606200212A207F
:101D000001552021292001552046FEF7C6FE85E019
:101D100020684068072109028843216848602068DC
:101D200000680121490208432168086000206062C0
:101D30002021292001552A20005D402806D10021BC
:101D40002A2001552046FEF7AAFE67E000212A203E
:101D500001552046FEF7A1FE60E0212D03D0402F63
:101D60005CD1222D5AD1E08B002807D12068406831
:101D7000012189028843216848604FE02A20005DE4
:101D8000402841D1E06B002815D1A06B012807D174
:101D9000606BC0B221680861E06B801CE0633DE0CD
:101DA000606BFF2109020840001221680861E06BA6
:101DB000401CE06332E0E06B012807D1606BC0B2E9
:101DC00021680861E06B401CE06327E0E06B0228BB
:101DD00024D12920005D222807D120680068FF2136
:101DE000013108432168086018E02920005D21289E
:101DF00014D1A069007821680861A069401CA06125
:101E0000E08B401EE08309E0A0690078216808614A
:101E1000A069401CA061E08B401EE083F8BD00007B
:101E20000000FFFF016BC9B202681161704700003A
:101E300038B52A24225C016A436A2924245C222CB6
:101E40007ED1C46B002C0BD1402A09D100BF009475
:101E50000468646900940468A469009400BFCDE03C
:101E6000C48B002C11D100BF0094046864690094F5
:101E70000468A469009400BF00BF046824680125B9
:101E80006D022C4305682C60AAE0C48B012C60D144
:101E90005B4CA14219D1046824680125AD02AC4312
:101EA00005682C6000BF00240094046864690094F5
:101EB0000468A469009400BF00BF04682468012579
:101EC0006D022C4305682C608AE0082925D0202962
:101ED00023D0122B01D101291FD104290BD00229B3
:101EE00009D0102907D0046824680125AD02AC434D
:101EF00005682C6006E0046824680125AD022C43C7
:101F000005682C6000BF0024009404686469009494
:101F10000468A469009400BF62E004682468012595
:101F2000AD02AC4305682C6000BF00240094046837
:101F3000646900940468A469009400BF00BF00E0D5
:101F400051E00468246801256D022C4305682C606B
:101F500046E0C48B022C31D104291DD002291BD0AC
:101F6000102919D0046824680125ED022C43056866
:101F70002C6000BF00240094046864690094046825
:101F8000A469009400BF00BF046824680125AD0265
:101F9000AC4305682C6023E0046824680125AD0289
:101FA0002C4305682C6000BF002400940468646919
:101FB00000940468A469009400BF11E004682468D8
:101FC0000125AD022C4305682C6000BF002400945D
:101FD0000468646900940468A469009400BF00BFA9
:101FE0000024C4630AE000BF00240094046864690C
:101FF00000940468A469009400BF00BF38BD0000CD
:102000000000FFFF2A21095C40290FD1C16B002984
:1020100005D1016BFE2211400268116116E0016BCF
:1020200001221143C9B2026811610FE02921095C44
:10203000212905D1016BFE2211400268116105E0E2
:10204000016B01221143C9B2026811617047C18B53
:10205000002909D001680969826911708169491CE8
:102060008161C18B491EC183704770B50446292028
:10207000055DE08B00281DD020680069A16908700B
:10208000A069401CA061E08B401EE083E08B00282B
:1020900010D12A2D0ED12068406801218902884381
:1020A00021684860222060622821292001552046AD
:1020B000FEF7F8FC70BDC18B002909D08169097851
:1020C000026811618169491C8161C18B491EC1830C
:1020D000704770B504462920055DE08B00281DD0AF
:1020E000A069007821680861A069401CA061E08BAC
:1020F000401EE083E08B002810D1292D0ED12068EE
:10210000406801218902884321684860212060627B
:102110002821292001552046FEF7D0FC70BDF8B5D6
:1021200004460D46002600272920005D282108408E
:10213000282817D120684068012189028843216836
:102140004860042028408008002800D1012600BFF4
:1021500000212820015500BF3A4631462046FEF7AF
:102160008DF908E00220C0432168486100BF0021CA
:102170002820015500BFF8BD70B504462920055D33
:10218000266A082E01D0202E20D1282D1ED12248CB
:10219000206220684068072109028843216848605E
:1021A0001E4821684861206800680121890288432F
:1021B000216808600020606220212920015500214B
:1021C0002A2001552046FEF759FC23E0212D1ED17F
:1021D0001148206221206062202129200155002120
:1021E0002A20015520684068072109028843216898
:1021F00048600A4821684861206800680121890216
:102200008843216808602046FEF758FC02E0034836
:102210002168486170BD00000000FFFFFFFBFFFF69
:10222000FEB504462920065D2A20075DE08B02905A
:102230002920055D606A0190202F13D102980028A3
:1022400010D1212D06D0292D04D0282D0AD1019896
:10225000212807D12068406803214902884321686A
:10226000486006E020684068072109028843216829
:10227000486000BF002000902068406900902068FE
:102280000068012108432168086000BF00BF206882
:10229000006801218902884321680860E08B0028DA
:1022A00028D020684069042108408008002809D00F
:1022B00020680069A1690870A069401CA061E08BDA
:1022C000401EE083206840694021084080090028C2
:1022D00009D020680069A1690870A069401CA0614C
:1022E000E08B401EE083E08B002803D0E06A0421ED
:1022F0000843E062E06A002803D02046FFF722FB93
:102300002BE02A2E07D100206062282129200155C8
:102310002046FEF7C7FB2920005D28280DD10F4875
:1023200020620020606220212920015500212A20FE
:1023300001552046FEF7A2FB0FE0606A222801D07B
:10234000222E0AD10020606220212920015500217F
:102350002A2001552046FEF7A5FBFEBD0000FFFF29
:1023600010B51848184908601848486001218903C9
:10237000154881604A21C160002101614161FEF779
:10238000A3FA1148FEF764FA0823012210490E4807
:10239000FEF795FB0C4800684068072109020843D6
:1023A0000949096848600021172000F0E9F8172062
:1023B00000F0D2F80021062000F0E2F8062000F03C
:1023C000CBF810BD00540040D4020020A0860100CC
:1023D0000400002010B50548FEF768F80448C06BFB
:1023E0000121490588430249C86310BDD402002079
:1023F0000010024000B587B0142102A8FDF7A7FE27
:1024000000BF1648C06B0121490508431349C86342
:102410000846C06B012149050840019000BF00BF7C
:1024200008200290122003900020049002200590C2
:102430000620069002A90A48FDF73EFF10200290F0
:1024400012200390002004900220059006200690A0
:1024500002A90348FDF730FF07B000BD001002409D
:102460000004005000B585B014216846FDF76FFEEA
:102470000820009009480190012002906946084810
:10248000FDF71AFF10200090032001900020029019
:1024900069460348FDF710FF05B000BD000021109C
:1024A0000004005010B504480078401C0249087030
:1024B0000248FEF71FFC10BDB802002014030020E4
:1024C00010B5FFF787FFFFF7CDFF0B48006801212C
:1024D000C902884308490860084600680121C90309
:1024E000884305490860FFF7EFF801218803FEF7EC
:1024F000EDFCFFF7C3F810BD401002401FB50020EF
:102500000090019002900390012040020090400250
:1025100003906846FEF7FAFC0C480D490860052058
:102520004002486000210A488160FEF70DFC00224D
:1025300011461120FEF7C0FC1120FEF7B1FC01216D
:1025400089020348FEF721FC1FBD0000007C00400B
:102550001403002070470000C206D20E01219140F2
:10256000014A11607047000000E100E0C206D20E8F
:1025700001219140014A11607047000000E100E034
:1025800010B5002819DA1A4A03071B0F083B9B08ED
:102590009B00D2588307DC0EFF23A3409A438B078E
:1025A0001B0E8407E40EA3401A43114B0407240FAB
:1025B000083CA408A4001A5118E00E4A03231B0289
:1025C000D21883089B00D2588307DC0EFF23A34058
:1025D0009A438B071B0E8407E40EA3401A43054B56
:1025E000032424021B198408A4001A5110BD000002
:1025F0001CED00E000E100E010B5002819DA1A4AED
:1026000003071B0F083B9B089B00D2588307DC0E77
:10261000FF23A3409A438B071B0E8407E40EA340BD
:102620001A43114B0407240F083CA408A4001A51B4
:1026300018E00E4A03231B02D21883089B00D258CD
:102640008307DC0EFF23A3409A438B071B0E8407EE
:10265000E40EA3401A43054B032424021B198408EB
:10266000A4001A5110BD00001CED00E000E100E0E4
:1026700010B5002819DA1A4A03071B0F083B9B08FC
:102680009B00D2588307DC0EFF23A3409A438B079D
:102690001B0E8407E40EA3401A43114B0407240FBA
:1026A000083CA408A4001A5118E00E4A03231B0298
:1026B000D21883089B00D2588307DC0EFF23A34067
:1026C0009A438B071B0E8407E40EA3401A43054B65
:1026D000032424021B198408A4001A5110BD000011
:1026E0001CED00E000E100E07047000038B500207C
:1026F0000090002500243CE0E0002649085C2649C3
:102700000978884234D1E0002249401880780028B6
:1027100011D1E0004018407801280CD1E0000A46B1
:1027200080180823012241681C48FEF71AFA01208C
:102730001B49087038BDE000164940188078012810
:1027400016D1E00040184078012811D1E00040186F
:1027500040680588291268460170457008230222E6
:1027600069460E48FEF7FDF901200D490870E1E7C2
:10277000641C562CC0D309480068006801218902F6
:10278000884306490968086001200649087000BFAF
:10279000D0E700000800002004000020D402002040
:1027A000C5020020C4020020704710B5FEF756FA9B
:1027B00010BD000010B50E484068000C00040D4923
:1027C000098889B208430A494860084640680A49AE
:1027D0000840084940318988C905C90908430449A6
:1027E0004860C80305498860C820FDF741FD10BD59
:1027F000001002400001FF1FFFFF00FE00ED00E09F
:1028000010B504480078401C024908700248FEF7E1
:1028100095FF10BDC00200205003002010B50448F1
:102820000078401C024908700248FEF787FF10BD7F
:10283000BC0200203003002010B50268144B9842FF
:1028400005D170241346A3431A464B681A43104B14
:10285000984202D00F4B984206D10324240213461B
:10286000A3431A46CB681A4380241346A3434C69FA
:1028700023431A4602608B68C3620B688362044B71
:10288000984201D10B6903630123436110BD00002D
:10289000002C01400020004000F068F800F07CF8B7
:1028A00001200D49087016E00C480078012806D177
:1028B000FFF7A0FDFFF754FD002008490870064807
:1028C0000078012807D1FFF7FBFD012003490870BC
:1028D000002001490870E7E7C6020020C40200207A
:1028E00010B50E480E49086002210D48C16007204E
:1028F0000B49486000210A480161816041618161A2
:10290000FEF7EEFE1320FFF731FE00211320FFF744
:1029100073FE0348FEF7FCFE10BD000000200040DF
:102920005003002010B50E480E4908600E490D48AE
:10293000C16017200B49486000210A48016181608D
:1029400041618161FEF7CCFE0D20FFF70FFE0021F3
:102950000D20FFF751FE0348FEF7DAFE10BD000020
:10296000002C014030030020E703000000B585B0D3
:1029700014216846FDF7EBFB012000900190002038
:1029800002900220039069460248FDF795FC05B0CD
:1029900000BD00000004005006484069C007C00F99
:1029A000002803D001200349886202E00120014988
:1029B000886170470004005010B506480649086059
:1029C000042048600521490203488160FEF71AF996
:1029D00010BD0000003000402403002002E008C8C1
:1029E000121F08C1002AFAD170477047002001E089
:1029F00001C1121F002AFBD1704710B5FDF7EFFB94
:102A0000FFF74AFF002010BD00000000000000009A
:102A100000000000000000000000000000000000B6
:102A200000000000000000000100000002000000A3
:102A30000300000004000000060000000700000082
:102A40000800000009000000000000000000000075
:102A50000000000000000000010000000200000073
:102A6000030000000400000000093D0000127A008D
:102A7000000000000000000000366E01006CDC0267
:102A80000000000000000000A0DF168C008050282D
:102A9000000000000000ABBED7CBC8C09D60369AD6
:102AA00087754A3E2A201A1713287EDAF5D2CECF30
:102AB000D0CDCCC8C3C0BCC3C69E8F877D736C7598
:102AC000828FA78760738000AB1000923D000000EA
:102AD000611FA13C00000000000000000084000015
:102AE00000093D0000127A00000000000000000014
:102AF00000366E01006CDC020000000000000000E7
:102B0000202B000800000020D402000088010008EB
:102B1000302D0008D40200209C040000EC2900089D
:102B20001154366E01190613882A1B0803081A89E6
:102B3000081A05081A8A081A06081A8B081A0808BB
:102B40001A8C081A0B081A8D081A10081A8E081AFF
:102B500011081A8F081A12081A90081A13081A91E5
:102B6000081A14081A92081A15081A93081A16084F
:102B70001A94081A17081A95081A18081A96081AA3
:102B800019081A97081A1A081A98081A1B081A9985
:102B9000081A1C081A9A081A1D081A9B081A1E08F7
:102BA0001A9C081A1F081A9D081A20081A9E081A4B
:102BB00021081A9F081A22081AA0081A23081AA125
:102BC000081A24081AA2081A25081AA3081A26089F
:102BD0001AA4081A27081AA5081A28081AA6081AF3
:102BE00029081AA7081A2A081AA8081A2B081AA9C5
:102BF000081A2C081AAA081A2D081AAB081A2E0847
:102C00001AAC081A2F081AAD081A30081AAE081A9A
:102C100031081AAF081A32081AB0081A33081AB164
:102C2000081A34081AB2081A35081AB3081A3608EE
:102C30001AB4081A37081AB5081A38081AB6081A42
:102C400039081AB7081A3A081AB8081A3B081AB904
:102C5000081A3C081ABA081A3D081ABB081A3E0896
:102C60001ABC081A3F081ABD081A40081ABE081AEA
:102C700041081ABF081A42081AC0081A43081AC1A4
:102C8000081A44081AC2081A45081AC3081A46083E
:102C90001AC4081A47081AC5081A48081AC6081A92
:102CA00049081AC7081A4A081AC8081A4B081AC944
:102CB000081A4C081ACA081A4D081ACB081A4E08E6
:102CC0001ACC081A4F081ACD081A50081ACE081A3A
:102CD00051081ACF081A52081AD0081A53081AD1E4
:102CE000081A54081AD2081A55081AD3081A56088E
:102CF0001AD4081A57081AD5081A58081AD6081AE2
:102D000059081AD7081A5A081AD8081A5B081AD983
:102D1000081A5C081ADA081A5D081ADB081A5E0835
:102D20001ADC081A5F081ADD0801143204191F1191
:04000005080000C12E
:00000001FF
