:020000040800F2
:10000000B0050020D50000082D210008D9150008F2
:1000100000000000000000000000000000000000E0
:10002000000000000000000000000000372200086F
:1000300000000000000000003522000839220008FE
:10004000000000000000000000000000E7000008C1
:10005000E7000008E700000861020008E700000868
:100060000000000000000000000000000000000090
:10007000E7000008E7000008E700000800000000B3
:1000800000000000E700000800000000E700000892
:10009000000000000000000000000000DD15000866
:1000A00000000000E700000800000000E700000872
:1000B0000000000000000000000000000000000040
:1000C0000348854600F04EF8004800472B230008FF
:1000D000B00500200448804704480047FEE7FEE7DB
:1000E000FEE7FEE7FEE7FEE751220008C100000838
:1000F00030B50B46014600202022012409E00D46C0
:10010000D5409D4205D31D469540491B2546954047
:1001100040191546521E002DF1DC30BD03460B433D
:100120009B0703D009E008C9121F08C0042AFAD2AD
:1001300003E00B780370401C491C521EF9D2704733
:10014000D2B201E00270401C491EFBD2704700226F
:10015000F6E710B513460A4604461946FFF7F0FFC6
:10016000204610BD064C0125064E05E0E36807CC8D
:100170002B430C3C98471034B442F7D3FFF7A4FF4D
:10018000D8230008F823000830B58C180278401CEA
:1001900013071B0F01D10378401C120906D1027806
:1001A000401C03E005780D70401C491C5B1EF9D112
:1001B00001E00B70491C521EFBD1A142E6D3002086
:1001C00030BD10B500F0CAFD00F008F801F06EFF78
:1001D00001F050FF10BD00BFFEE7000000B58DB07C
:1001E000242104A8FFF7B3FF0020009001900290A3
:1001F00003900F200490FF20013008900020099008
:100200000F48008880B20A90002005900B9006905D
:1002100004A800F0A9FF002801D0FFF7DCFF0720A9
:10022000009000200190029003900021684600F0A9
:100230005DFE002801D0FFF7CEFF0DB000BD00002D
:100240000001FF1F08B505494143009100BF00BFF1
:1002500000994A1E00920029F9D108BDB80B000090
:1002600010B5082000F01EF801200149087010BDEB
:100270005C01002070B5044600F0FEF806462546F5
:10028000681C002802D0054800682D1800BF00F047
:10029000F3F8801BA842FAD370BD00000C000020C8
:1002A0007047000010B504460548C068204000288B
:1002B00004D00348C4602046FFF7F2FF10BD0000E1
:1002C0000018024070B503460022CBE0012696409C
:1002D0000C683440002C71D04D68022D02D04D685E
:1002E000122D15D1D508AE001D462035A859550749
:1002F000EE0E0F25B5400646AE4330465607F60EC5
:100300000D69B5402843D508AD001E462036705112
:10031000186856000325B5400646AE4330460D79B1
:10032000AD07AD0F5600B540284318604D68012D4C
:1003300008D04D68022D05D04D68112D02D04D68B2
:10034000122D18D1986856000325B5400646AE43D5
:1003500030465600CD68B54028439860586801255E
:1003600095400646AE43304610264D6835402D096F
:10037000954028435860D86856000325B540064686
:10038000AE43304656008D68B5402843D8600126FC
:1003900036074D683540B54263D1354D9608B600F5
:1003A000A8599507EE0E0F25B5400646AE433046D8
:1003B00005252D07AB4202D1002506E051E02D4D69
:1003C000AB4201D1012500E002259607F60EB540AB
:1003D0002843274D9608B600A851254D203528689A
:1003E0000546A5432846012636044D683540B542EA
:1003F00002D10546254328461D4D203528606868F2
:100400000546A5432846012676044D683540B54289
:1004100002D1054625432846154D20356860144D08
:10042000603D28680546A5432846012636054D68E7
:100430003540B54202D10546254328460C4D603D66
:10044000286068680546A5432846012676054D685C
:100450003540B54202D1054625432846044D603D4E
:100460006860521C0D68D540002D00D02EE770BD8D
:100470006018024000040050014800687047000006
:10048000040000207047000070B505460C46164673
:100490000F492868884219D1012C09D1082301226B
:1004A0000C490D4800F0FCFB02200C4908700DE0DF
:1004B000002C0BD100200A490870082301220549AD
:1004C000054800F09BFB03200449087070BD000044
:1004D00000540040100000206C0100201300002098
:1004E0001400002010B50446002C01D1012010BDDD
:1004F0002421292001552068006840084000216817
:100500000860204600F0DCFA0020E062002129208B
:100510000155002060622A20015500BF28200155A6
:1005200000BF0020E3E70000F0B585B00446206876
:1005300047692068406800900025FF20013038405E
:10054000000A002812D0FF21013100980840000A5B
:1005500000280BD001200543C8432168486120686A
:1005600000680121C9030843216808600120400296
:100570003840400A00280BD0FF2101310098084084
:10058000000A002804D0022005432C482168486155
:10059000012080023840800A002832D0FF2101313A
:1005A00000980840000A00282BD02A20005D039004
:1005B000E08B02902920065D606A01900398202854
:1005C0000FD1029800280CD1212E06D0292E04D05C
:1005D000282E06D10198212803D1204601F038FCAD
:1005E0000FE0174821684861042005432A20005D78
:1005F000102806D1206800680121490208432168BB
:1006000008600120C0023840C00A00280BD0FF213A
:10061000013100980840000A002804D00820054352
:10062000084821684861002D05D0E06A2843E0624F
:10063000204600F0EDFF05B0F0BD0000FFFDFFFF1C
:10064000FFFBFFFFFFF7FFFFFEB50646002002900D
:1006500030684568376A2A20805D01902920805DD6
:1006600000900198102802D00198402871D130687C
:100670008069029030684469E007C00F012148405A
:10068000484000280CD155204004874202D0000287
:10069000874201D1012000E00020012800D1FEBDE9
:1006A000E007C00F01214840484000280BD0480215
:1006B0002840400A002806D0304600F099FF304616
:1006C00001F006FBD2E008202040C008002809D035
:1006D000012040022840400A002803D0304601F0A3
:1006E00007FAC3E0022020404008002809D001207A
:1006F00040022840400A002803D0304601F0FEF9AD
:10070000B4E00421029808408008002822D080200C
:100710002040C00900280DD008022840800A002887
:1007200008D0042020408008002803D1304601F082
:100730002FF99BE00420204080080028C2D001202F
:1007400040022840400A002802D0304601F0CAF892
:100750008CE022E040202040800900280ED00120BB
:1007600080022840800A002808D004202040800809
:10077000002803D1304601F05EF877E004202040E5
:100780008008002872D0012040022840400A00283A
:100790006CD0304600F0B4FF68E030684469022055
:1007A0002040400800280DD0012040022840400A87
:1007B000002807D03068806902903046029901F025
:1007C00014FB53E0102020400009002803D03046DD
:1007D00001F0B0FB4AE00098212802D000982928B7
:1007E00022D180202040C00900280ED001208002A4
:1007F0002840800A002808D00420204080080028D3
:1008000003D1304601F0CBFA30E0042020408008CC
:1008100000282BD0012040022840400A002825D083
:10082000304601F0AEFA21E0402020408009002847
:100830000ED0012080022840800A002808D0042021
:1008400020408008002803D1304601F074FA0DE002
:10085000042020408008002808D0012040022840C1
:10086000400A002802D0304601F057FA00BF16E7D0
:1008700001462920405C20281ED1282229204254EC
:1008800008680068C007C00F002805D10868006824
:10089000012210430A681060086800680122920271
:1008A00010430A681060086840680322120210436F
:1008B0000A685060002070470220FCE7074A016880
:1008C00091420AD106490978002903D00021044A3F
:1008D000117002E00121034A11707047005400407A
:1008E0005D0100205C01002070B50446002C01D1A0
:1008F000012070BD2920005D002805D1002128209D
:100900000155204600F0DDF82421292001552068FA
:100910000068400840002168086000F0CBFB0546F5
:1009200059496068884206D85848854201D201205A
:1009300007E0002005E05648854201D2012000E092
:100940000020012800D1D4E752492846FFF7D0FB08
:10095000064620684068810989013143206841606A
:1009600049496068884201D8701C08E0FF212D3198
:10097000714308467D21C900FFF7BAFB401C21687E
:10098000096A890989010843216808623E4960684B
:10099000884214D862685100681EFFF7A9FB401C0A
:1009A0000005000D042801D2042041E062685100D6
:1009B000681EFFF79DFB401C0005000D38E0A06895
:1009C000002807D162685300D118681EFFF790FB1A
:1009D000401C0AE0192362685A431146681EFFF75B
:1009E00087FB401C0121890340180005000D0028E9
:1009F00001D101201CE0A068002809D162685300E1
:100A0000D118681EFFF774FB401C0005000D0CE0B8
:100A1000192362685A431146681EFFF769FB401CA0
:100A20000005000D0121890340180121C903084375
:100A30002168C969184A114008432168C861616981
:100A40002069084321680968C0229143084321684E
:100A5000086020688068FE218843E16808432168B7
:100A60008860206800680121084321680860002030
:100A7000E0622021292001550020606200212A2007
:100A80000155002035E70000A086010080841E008B
:100A900000093D0040420F000030FFFF10B5044642
:100AA00003492068884202D10248FFF7E1FE10BDE9
:100AB000005400406C010020704770477047704739
:100AC0007047704710B504461949206888422DD1F7
:100AD00018480078C000184940184078022824D1EE
:100AE00016480078032806D1012014490870002018
:100AF0001349087008E011480078012804D1104813
:100B00000078401C0E4908700A4800780C4A127898
:100B10008018C000084A801808230122416809484B
:100B200000F06CF800200849087000BF10BD0000FC
:100B30000054004010000020480000201300002056
:100B4000120000206C0100205C01002010B504465A
:100B500023492068884241D122480078C0002249B8
:100B600040184078012823D11E4800781F49097891
:100B70004018801CC0001C4940184078012817D13B
:100B80001B480078022829D118480078401C1749D2
:100B90000870144800780A4612788018C000124A7B
:100BA0008018082301224168124800F079F815E006
:100BB0000C480078C0000C494018407802280AD040
:100BC00008480078094909784018C00006494018CB
:100BD0004078022802D101200749087010BD0000AA
:100BE00000540040100000204800002014000020A5
:100BF000130000206C0100205C01002038B5044681
:100C00002920005D28252840282847D1002901D027
:100C1000002A01D1012038BD00BF2820005D012835
:100C200001D10220F7E701252820055500BF2068E3
:100C300000682840002804D12068006828432568FF
:100C40002860206800680125ED02A8432568286017
:100C50002A252920055520252A2005550020E06257
:100C6000A161E283E08BA083236200BF002000909B
:100C700020684069009020688069009000BF00BF34
:100C800000BF00252820055500BF206840680725C3
:100C90002D022843256868600020BCE70220BAE7DF
:100CA00038B504462920005D28252840282846D14B
:100CB000002901D0002A01D1012038BD00BF282021
:100CC000005D012801D10220F7E701252820055504
:100CD00000BF206800682840002804D12068006810
:100CE000284325682860206800680125ED02A84394
:100CF0002568286029252D5520252A200555002006
:100D0000E062A161E283E08BA083236200BF002048
:100D1000009020684069009020688069009000BFC2
:100D200000BF00BF00252820055500BF206840688F
:100D300007252D022843256868600020BDE70220B2
:100D4000BBE70000034800680349096840180149EF
:100D500008607047040000200C00002010B500243B
:100D6000032000F009F8002801D0012401E000F080
:100D700033F8204610BD0000F8B50446002513489E
:100D8000006800281ED0114801687D20C000FFF7D0
:100D9000AFF9074639460E480068FFF7A9F906463D
:100DA00000F0FEFB00280BD1042C07D200222146C4
:100DB000401E00F091F80748046004E0012502E0BD
:100DC000012500E001252846F8BD00000C000020A8
:100DD000000000200800002008B500BF3D48006862
:100DE000012108433B49086008460068C007C00F5E
:100DF000009000BF00BF00BF36484038C06B890577
:100E0000084334494039C8630846C06B09040840A8
:100E1000009000BF00BF00BF2E484038C06BC91112
:100E200008432C494039C8630846C06B0121490575
:100E30000840009000BF00BF00BF26484038406B0C
:100E4000012108432349403948630846406BC007E5
:100E5000C00F009000BF00BF00BF0846406B0221DA
:100E600008431C49403948630846406B022108404A
:100E7000009000BF00BF00BF16484038C06B890714
:100E8000084314494039C8630846C06BC00FC00707
:100E9000009000BF00BF00BF0E480068C91408439F
:100EA0000C49086008460068C9140840009000BF5B
:100EB00000BF00BF074800680901084305490860F2
:100EC000084600680121C9030840009000BF00BF28
:100ED00008BD00004010024070B504460D4616469D
:100EE0002946204601F02EF970BD000070B5044679
:100EF0000D46002C01D1012070BD65480068C00777
:100F0000C00FA84218D26248006840084000284339
:100F10005F490860FFF7B0FA064607E0FFF7ACFA52
:100F2000801B5C49884201D90320E5E758480068E6
:100F3000C007C00FA842F1D1022120680840022852
:100F400015D1042120680840042807D15248806840
:100F500007210903884340184F4988604E4880683C
:100F60000F2109028843A16808434B498860207813
:100F7000C007C00F002848D06068012808D1464843
:100F80000068012189040840002822D10120B3E72C
:100F90006068002808D140480068012189020840A3
:100FA000002816D10120A7E76068042808D13A4834
:100FB0004030C0690221084000280AD101209BE787
:100FC00035484030006A02210840002801D1012044
:100FD00092E731488068C008C000616808432E4924
:100FE0008860FFF749FA064607E0FFF745FA801BDD
:100FF0002849884201D903207EE7274880683821A4
:1010000008406168C9008842EFD121480068C007E4
:10101000C00FA84218D91E48006840084000284365
:101020001B490860FFF728FA064607E0FFF724FA95
:10103000801B1849884201D903205DE714480068E5
:10104000C007C00FA842F1D104212068084004283D
:1010500008D111488068072109038843E1680843E3
:101060000D49886000F03AF80B4989680F22120296
:101070001140090A8900094A515CC906C90EC840D5
:101080000749086007480068FFF776FE34E700006C
:10109000002002408813000000100240382300089E
:1010A0000000002008000020014800687047000090
:1010B0000000002000B5FFF7F7FF06498968072206
:1010C00012031140090B8900034A515CC906C90E7D
:1010D000C84000BD001002407823000870B588B0F9
:1010E00020221E496846FFF719F81D4880683821FC
:1010F0000840002814D11A48006809020840C10AB3
:1011000001258D4016484068072149030840460BD9
:10111000B1006A4650582946FEF7EAFF044619E036
:101120000F48806838210840082801D10D4C11E093
:101130000B48806838210840202801D1840209E04A
:101140000748806838210840182802D10124E403A8
:1011500000E00024204608B070BD0000B82300085D
:101160000010024000366E0170B50446002C01D11B
:10117000012070BD2078C007C00F00281ED0FA489B
:10118000866838210E40082E04D16068002815D1E9
:101190000120EEE700BF012189046068884205D183
:1011A000F14800680843F049086006E0EE4800682E
:1011B000012189048843EC49086000BF02212068AE
:1011C0000840022875D1E848806838210840064662
:1011D000002E58D1E4480068012189020840002807
:1011E00004D02069002801D10120C2E7DF4800684F
:1011F00040084000401CDD490860DB4800680721CA
:10120000C902884361690843D749086008464068B5
:10121000000C0004A1690843D3494860FFF72CF98A
:10122000054606E0FFF728F9401B022801D90320F4
:101230009FE7CD4800680121890208400028F1D0CD
:10124000FFF74CFFC84989680F2212021140090AB2
:101250008900C74A515CC906C90EC840C549086023
:1012600008460068C449884205D8C048006840085C
:101270004000BE490860C1480068FFF77DFD0028B6
:1012800048D0012075E7206900282AD0B6480068B8
:101290000721C902884361690843B34908600846C9
:1012A000006889150843B0490860FFF7E5F805466E
:1012B00007E02FE0FFF7E0F8401B022801D90320E8
:1012C00057E7A94800680121890208400028F1D0A9
:1012D000A5484068000C0004A1690843A249486081
:1012E00018E0A1480068FF21013188439E49086049
:1012F000FFF7C2F8054606E0FFF7BEF8401B0228DC
:1013000001D9032035E79848006801218902084087
:101310000028F1D108212068084008286ED19248A1
:10132000806838210840182840D18F484030006A32
:1013300002210840002804D0E069002801D10120E2
:1013400017E7894840688E4908408E498988C90551
:10135000C909084384494860FFF78EF8054606E04E
:10136000FFF78AF8401B022801D9032001E77E48D5
:101370004030006A022108400028F1D0FFF7AEFE9D
:10138000794989680F2212021140090A8900784AB6
:10139000515CC906C90EC8407649086077480068A4
:1013A000FFF7EAFC002844D00120E2E6E0690028CB
:1013B00025D06D484030006A012108436A49403118
:1013C0000862FFF759F8054606E0FFF755F8401B9D
:1013D000022801D90320CCE663484030006A02218C
:1013E00008400028F1D060484068654908406549D8
:1013F0008988C905C90908435B49486019E05A480A
:101400004030006A40084000574940310862FFF709
:1014100033F8054606E0FFF72FF8401B022801D9F4
:101420000320A6E650484030006A02210840002808
:10143000F1D1042120680840042878D14A48806806
:101440003821084020280BD147484030C06902218C
:10145000084000286BD0A068002868D1012088E6E9
:10146000A06800282CD000BF3F484030C069400829
:1014700040003D494031C8610846C06904218843A5
:1014800039494031C86100BFFEF7F6FF054607E065
:10149000FEF7F2FF401B3C49884201D9032068E671
:1014A00031484030C069022108400128F0D02E4860
:1014B0000069032109048843E16808432A49086157
:1014C00000BFA068012808D127484030C069012129
:1014D000084325494031C86121E0A06805280FD1A3
:1014E00021484030C069042108431F494031C86188
:1014F0000846C069012108431B494031C8610EE01C
:1015000019484030C0694008400017494031C8615F
:101510000846C0690421884313494031C86100BFAF
:10152000A068002814D0FEF7A7FF054608E033E0C6
:10153000FEF7A2FF401B1449884201D9032018E698
:1015400009484030C069022108400028F0D023E05B
:10155000FEF792FF054619E0FEF78EFF401B0A4991
:10156000884213D9032004E6001002400020024004
:10157000382300080000002000366E01080000201B
:10158000FFFF00FE4001FF1F881300000348C069F1
:10159000022108400028DFD10020EAE54010024087
:1015A00070B504462546681E0949884201D90120C4
:1015B0000CE0681E074948610321081F00F0C2FDC6
:1015C00000200449886107200861002070BD0000E8
:1015D000FFFFFF0000E000E000BFFEE710B503489A
:1015E000FFF732F80148FEF79FFF10BD6C010020A5
:1015F000016A55225204914202D10121016206E0A2
:10160000016A55225206914201D1082101627047B8
:1016100070B504462920055D2A20005D102808D1F8
:10162000222D06D1206800680121C9028843216863
:10163000086028202840282805D100206062282141
:101640002920015509E0602D02D0202129200155D3
:101650000020606200212A2001552920005D6028B9
:101660001CD12021292001550020E062206840691A
:10167000402108408009002806D020680069A1693F
:101680000870A069401CA061206800684008400004
:10169000216808602046FEF7F5FE10E020684069EA
:1016A000402108408009002806D020680069A1690F
:1016B0000870A069401CA0612046FFF7FFF82920B0
:1016C000055DE06A04210840042815D1282D13D1B6
:1016D000206840680721090288432168486007485C
:1016E00020620020606220212920015500212A204B
:1016F00001552046FFF7D2F970BD00000000FFFF42
:1017000070B50446256AE08B042811D12068406832
:101710000121890288432168486020680069A16925
:101720000870A069401CA061E08B401EE08381E04E
:10173000E08B03281CD1206840680121890288437E
:1017400021684860042D08D0022D06D0206800686A
:101750000121890288432168086020680069A16925
:101760000870A069401CA061E08B401EE08361E02E
:10177000E08B022854D1012D01D0102D07D1206813
:1017800000680121890288432168086014E0042D63
:1017900001D0022D07D12068006801218902084389
:1017A0002168086008E0102D06D02068006801213B
:1017B000490208432168086020680069A16908702F
:1017C000A069401CA061E08B401EE0832068006996
:1017D000A1690870A069401CA061E08B401EE083F5
:1017E000206840680321090288432168486020215D
:1017F000292001552A20005D402808D100212A20F7
:101800000155002060622046FFF758F912E00021E0
:101810002A200155122060622046FFF74DF909E0A9
:1018200020680069A1690870A069401CA061E08B74
:10183000401EE08370BD70B504462920005D22285B
:101840004FD1E58B032D14D920680069A169087078
:10185000A069401CA061E08B401EE083E08B032860
:101860003ED1206840680121890288432168486090
:1018700036E0206A022833D0012D01D0002D2FD16F
:101880002068006801218902884321680860206877
:101890004068072109028843216848602068006980
:1018A000A1690870A069401CA061E08B401EE08324
:1018B0002021292001552A20005D402808D100213F
:1018C0002A200155002060622046FFF7F7F807E064
:1018D00000212A200155122060622046FFF7ECF813
:1018E00000BF70BD70B50446256A2920005D21281F
:1018F0004BD1E08B00280AD0A069007821680861EC
:10190000A069401CA061E08B401EE0833DE0082DF3
:1019100017D0202D15D01D48854212D02068406870
:101920000721090288432168486011206062002174
:101930002A2001552021292001552046FFF7BDF816
:1019400023E0206840680721090288432168486035
:1019500020680068012149020843216808600020CE
:1019600060622021292001552A20005D402806D1EF
:1019700000212A2001552046FFF7A1F805E00021AB
:101980002A2001552046FFF798F870BD0000FFFFA0
:10199000F8B504462920055D2A20075D266AA08B3C
:1019A000002840D1212D3ED1082E17D0202E15D051
:1019B0004E48864212D020684068072109028843B9
:1019C000216848601120606200212A2001552021F1
:1019D000292001552046FFF770F885E0206840680F
:1019E00007210902884321684860206800680121B6
:1019F00049020843216808600020606220212920F4
:101A000001552A20005D402806D100212A200155D9
:101A10002046FFF754F867E000212A2001552046B0
:101A2000FFF74BF860E0212D03D0402F5CD1222D31
:101A30005AD1E08B002807D1206840680121890233
:101A40008843216848604FE02A20005D402841D14A
:101A5000E06B002815D1A06B012807D1606BC0B2E4
:101A600021680861E06B801CE0633DE0606BFF2152
:101A700009020840001221680861E06B401CE06325
:101A800032E0E06B012807D1606BC0B221680861C9
:101A9000E06B401CE06327E0E06B022824D12920A2
:101AA000005D222807D120680068FF21013108432A
:101AB0002168086018E02920005D212814D1A06960
:101AC000007821680861A069401CA061E08B401E7D
:101AD000E08309E0A069007821680861A069401CE2
:101AE000A061E08B401EE083F8BD00000000FFFF16
:101AF000016BC9B2026811617047000038B52A2431
:101B0000225C016A436A2924245C222C7ED1C46BA6
:101B1000002C0BD1402A09D100BF009404686469ED
:101B200000940468A469009400BFCDE0C48B002C2D
:101B300011D100BF00940468646900940468A4692A
:101B4000009400BF00BF0468246801256D022C4387
:101B500005682C60AAE0C48B012C60D15B4CA142CB
:101B600019D1046824680125AD02AC4305682C60D6
:101B700000BF002400940468646900940468A469A8
:101B8000009400BF00BF0468246801256D022C4347
:101B900005682C608AE0082925D0202923D0122B43
:101BA00001D101291FD104290BD0022909D0102904
:101BB00007D0046824680125AD02AC4305682C6099
:101BC00006E0046824680125AD022C4305682C60FA
:101BD00000BF002400940468646900940468A46948
:101BE000009400BF62E0046824680125AD02AC43A4
:101BF00005682C6000BF00240094046864690094A8
:101C00000468A469009400BF00BF00E051E00468CC
:101C1000246801256D022C4305682C6046E0C48BC6
:101C2000022C31D104291DD002291BD0102919D032
:101C3000046824680125ED022C4305682C6000BF70
:101C4000002400940468646900940468A469009402
:101C500000BF00BF046824680125AD02AC430568DD
:101C60002C6023E0046824680125AD022C4305683C
:101C70002C6000BF00240094046864690094046828
:101C8000A469009400BF11E0046824680125AD0236
:101C90002C4305682C6000BF00240094046864692C
:101CA00000940468A469009400BF00BF0024C463CA
:101CB0000AE000BF0024009404686469009404688A
:101CC000A469009400BF00BF38BD00000000FFFF02
:101CD0002A21095C40290FD1C16B002905D1016B74
:101CE000FE2211400268116116E0016B01221143CE
:101CF000C9B2026811610FE02921095C212905D1CF
:101D0000016BFE2211400268116105E0016B0122A6
:101D10001143C9B2026811617047C18B002909D013
:101D200001680969826911708169491C8161C18BEF
:101D3000491EC183704770B504462920055DE08BBC
:101D400000281DD020680069A1690870A069401CA6
:101D5000A061E08B401EE083E08B002810D12A2D8B
:101D60000ED12068406801218902884321684860BB
:101D7000222060622821292001552046FEF7A2FE7C
:101D800070BDC18B002909D0816909780268116191
:101D90008169491C8161C18B491EC183704770B53F
:101DA00004462920055DE08B00281DD0A06900783D
:101DB00021680861A069401CA061E08B401EE0839F
:101DC000E08B002810D1292D0ED120684068012118
:101DD00089028843216848602120606228212920E7
:101DE00001552046FEF7B2FE70BDF8B504460D461B
:101DF000002600272920005D2821084028281DD121
:101E000020684068012189028843216848600420D5
:101E100028408008002800D105E0042028408008E0
:101E2000002800D0012600BF00212820015500BF56
:101E30003A4631462046FEF727FB08E00220C04321
:101E40002168486100BF00212820015500BFF8BD6E
:101E500070B504462920055D266A082E01D0202E83
:101E600020D1282D1ED122482062206840680721F9
:101E700009028843216848601E482168486120683B
:101E8000006801218902884321680860002060629F
:101E900020212920015500212A2001552046FEF746
:101EA000FDFD23E0212D1ED111482062212060621A
:101EB00020212920015500212A2001552068406851
:101EC000072109028843216848600A48216848615F
:101ED0002068006801218902884321680860204643
:101EE000FEF734FE02E003482168486170BD00003F
:101EF0000000FFFFFFFBFFFF10B50C480078012832
:101F000013D10020094908700948006800680121C0
:101F1000C90308430649096808600A20FEF7AAF9C0
:101F20000348FEF7DFFA00F0A5F810BD5C010020C1
:101F30006C010020FEB504462920065D2A20075DBD
:101F4000E08B02902920055D606A0190202F13D15B
:101F50000298002810D1212D06D0292D04D0282D3B
:101F60000AD10198212807D120684068032149023D
:101F700088432168486006E020684068072109021C
:101F800088432168486000BF0020009020684069B5
:101F9000009020680068012108432168086000BFA4
:101FA00000BF206800680121890288432168086019
:101FB000E08B002828D02068406904210840800870
:101FC000002809D020680069A1690870A069401C38
:101FD000A061E08B401EE0832068406940210840FA
:101FE0008009002809D020680069A1690870A069EB
:101FF000401CA061E08B401EE083E08B002803D0F2
:10200000E06A04210843E062E06A002803D0204629
:10201000FFF7FEFA2BE02A2E07D10020606228216C
:10202000292001552046FEF74DFD2920005D282876
:102030000DD10F4820620020606220212920015527
:1020400000212A2001552046FEF728FD0FE0606A96
:10205000222801D0222E0AD10020606220212920CE
:10206000015500212A2001552046FEF72BFDFEBD1B
:102070000000FFFF10B50A480A4908600A48486096
:102080000121890307488160AA21C1600021016103
:102090004161FEF729FC0348FEF7EAFB10BD000092
:1020A000005400406C010020A086010000B587B0FC
:1020B000142102A8FEF74BF800BF1A48C06B01219B
:1020C000490508431749C8630846C06B0121490503
:1020D0000840019000BF00BF08200290122003902A
:1020E00000200490022005900620069002A90E48C8
:1020F000FEF7E8F8102002901220039000200490D0
:10210000022005900620069002A90748FEF7DAF89B
:102110000021172000F052F8172000F009F807B04E
:1021200000BD000000100240000400507047000095
:10213000C206D20E01219140014A11607047000091
:1021400000E100E010B5002819DA1A4A03071B0F56
:10215000083B9B089B00D2588307DC0EFF23A3405B
:102160009A438B071B0E8407E40EA3401A43114BBE
:102170000407240F083CA408A4001A5118E00E4AD2
:1021800003231B02D21883089B00D2588307DC0E5E
:10219000FF23A3409A438B071B0E8407E40EA34042
:1021A0001A43054B032424021B198408A4001A5166
:1021B00010BD00001CED00E000E100E010B50028BB
:1021C00019DA1A4A03071B0F083B9B089B00D258D9
:1021D0008307DC0EFF23A3409A438B071B0E840763
:1021E000E40EA3401A43114B0407240F083CA40833
:1021F000A4001A5118E00E4A03231B02D2188308C8
:102200009B00D2588307DC0EFF23A3409A438B0721
:102210001B0E8407E40EA3401A43054B032424023B
:102220001B198408A4001A5110BD00001CED00E029
:1022300000E100E07047704710B5FEF783FD0348EA
:102240000068401C0149086010BD000064010020C6
:1022500010B50E484068000C00040D49098889B289
:1022600008430A494860084640680A490840084946
:1022700040318988C905C909084304494860C80331
:1022800005498860C820FDF7DDFF10BD0010024041
:102290000001FF1FFFFF00FE00ED00E000F020F84E
:1022A00000200B49087011E0FFF726FE094800786E
:1022B00000280BD1084840680078222803D101206B
:1022C0000649886102E0012004498862ECE70000C9
:1022D0005F01002013000020C8000020000400500F
:1022E00000B585B014216846FDF731FF012000904C
:1022F0000190002002900220039069460248FDF7F9
:10230000E1FF05B000BD00000004005002E008C875
:10231000121F08C1002AFAD170477047002001E05F
:1023200001C1121F002AFBD1704710B5FDF749FF0C
:10233000FFF7B4FF002010BD000000000000000007
:10234000000000000000000000000000000000008D
:10235000000000000000000001000000020000007A
:102360000300000004000000060000000700000059
:10237000080000000900000000000000000000004C
:10238000000000000000000001000000020000004A
:10239000030000000400000000093D0000127A0064
:1023A000000000000000000000366E01006CDC023E
:1023B000000000000000000000093D0000127A004B
:1023C000000000000000000000366E01006CDC021E
:1023D0000000000000000000F823000800000020BA
:1023E0006C01000088010008F82400086C0100203E
:1023F000440400001C2300085500366E014204A26C
:102400000150300102030405060708090A0B0C0DF0
:102410000E0F101112131415161718191A1B1C1D64
:102420001E1F202122232425262728292A2B2C2D54
:102430002E2F3201321534200101321634200201D0
:1024400032173420030132183420040132193420A9
:102450000501321A34200601321B34200701321CD8
:1024600034200801321D34200901321E34200A01B3
:10247000321F34200B01322034200C013221342051
:102480000D01322234200E01322334200F01322478
:102490003420100232253420110232263420120258
:1024A00032273420130232283420140232293420F7
:1024B0001502322A34201602322B34201702322C15
:1024C00034201802322D34201902322E34201A0200
:1024D000322F34201B02323034201C02323134209F
:1024E0001D02323234201E02323334201F023234B5
:0824F0004320673235021D2074
:04000005080000C12E
:00000001FF
